:020000040800F2
:1000000073700430170500001305C5FF8545F6051C
:10001000637BB50089816378B5001705000013057F
:10002000C5002E9502859302002073A0027D73E027
:10003000023209A0971100189381C18B970200002A
:1000400093824204938232007390523011A00000D8
:04005000752B00000C
:100080001D7116C21AC41EC672C876CA7ACC7ECE3C
:100090002AD02ED232D436D63AD83EDA42DC46DEE8
:1000A00006C0A2C61384C141F322203496C0F322B5
:1000B000103496C2F32300309EC4C808EF004012EB
:1000C000F322203493D2F20163940208F322203405
:1000D0008563FD13B3F272002D43638862020A85C3
:1000E00039718322C50416C426C64AC84ECA52CCEA
:1000F00056CE5AD05ED262D466D66AD86EDA23283B
:100100002504EF300027216179A09642910296C222
:100110009242638A02000943639562000255925538
:1001200085A80D4511A002558A85397183A2C504A1
:1001300016C426C64AC84ECA52CC56CE5AD05ED233
:1001400062D466D66AD86EDA23A825046F20307E82
:100150000323040093031300232074006317030098
:100160008A8203214400411116C0492883230400D8
:10017000FD13232074006390030202410C444111DB
:100180002EC013050000EF6090188245410101C5A3
:1001900065211384C141C808EF00C0049642A643FC
:1001A0000643731023347390123473900330364433
:1001B00092422243B243424ED24E624FF24F025518
:1001C00092552256B2564257D2576258F258824040
:1001D00025617300203000000000000000000000D6
:1001E000828000001305C5FA8322050437030080CE
:1001F000B3E262002320550482800000411106C052
:100200007375543405C5F322703033055540978219
:100210000000938222CF0605AA9203A5020003A341
:100220004200E70003007375543471FD82404101C0
:020230008280CA
:10023400C1676376F5029337051093C717008E07DD
:1002440037870008930600029D8E3355F500930707
:100254008743AA9703C507003385A64082803707E2
:100264000001C147E36EE5FCE147D9BFB307A040F5
:100274007D8DC1676373F5029337051093C717002B
:100284008E07378700083355F500130787432A97ED
:1002940003450700FD173E95828037070001C147DB
:1002A400E361E5FEE147F1BFAA882E8332872A88FD
:1002B400AE8763960620B7850008938585436371EE
:1002C400C30CC1666377D60A9336061093C616002C
:1002D4008E063355D600AA9583C505001305000282
:1002E400AE96B305D540630BD500B317B300B3D6B0
:1002F400D8003317B600D58F3398B800935507014B
:1003040033D3B702131607014182B3F7B7021A8534
:10031400B30866029396070193570801D58F63FCCF
:100324001701BA971305F3FF63E7E70063F51701B5
:100334001305E3FFBA97B3871741B3D8B70242084E
:1003440013580801B3F7B702B3061603C20733689C
:10035400F800C687637BD8003A989387F8FF6366F2
:10036400E8006374D8009387E8FF42055D8D8145FA
:10037400828037050001C146E36DA6F4E14691BFD2
:10038400814609CAC167637FF6089336061093C68F
:1003940016008E06B357D600BE9583C70500B697E0
:1003A40093060002B385F6406395F608B307C3408D
:1003B40085459358070133DE17031316070141825D
:1003C40093560801B3F7170372853303C603C207B4
:1003D400D58F63FC6700BA971305FEFF63E7E70058
:1003E40063F567001305EEFFBA97B387674033D30D
:1003F4001703420813580801B3F71703B30666023C
:10040400C2073368F8009A87637BD8003A98930749
:10041400F3FF6366E8006374D8009307E3FF4205C3
:100424005D8D8280B7070001C146E365F6F6E146BB
:1004340095B73317B600B356F300135507013313BA
:10044400B300B3D7F800B3E7670033D3A60213169B
:10045400070141823398B800B3F6A602B3086602D6
:100464009395060193D60701CD8E9A8563FC1601F8
:10047400BA969305F3FF63E7E60063F51601930567
:10048400E3FFBA96B3861641B3D8A602C207C18366
:10049400B3F6A60233061603C206D58FC68663FCDE
:1004A400C700BA979386F8FF63E7E70063F5C700D0
:1004B4009386E8FFBA97C205918FD58DDDBD63E1C0
:1004C400D514C16763FFF60213B70610134717006C
:1004D4000E07B7870008B3D5E60093878743AE9726
:1004E40083C70700BA9713070002B305F7406311E7
:1004F400F7020545E3EE66E633B5C800134515007B
:100504008280B70700014147E3E5F6FC6147D1B7B4
:100514003357F600B396B600D98E3357F30033132E
:10052400B300B3D7F800B3E7670013D30601B35E93
:10053400670213980601135808013316B60033777F
:100544006702330ED8031315070113D70701498F28
:100554007685637CC70136971385FEFF6367D700F2
:100564006375C7011385EEFF36973307C741335EC2
:100574006702C207C183337767023308C80342079F
:10058400D98F728763FC0701B6971307FEFF63E7F1
:10059400D70063F507011307EEFFB6974205416ED6
:1005A400598D9306FEFF3377D500B3870741F18E4B
:1005B4001358050141823303D702B306D802330727
:1005C400C7023308C8023306D70013570301329712
:1005D4006373D700729893560701C29663E0D702FB
:1005E400E397D7D8C167FD177D8F42073373F300B4
:1005F400B398B8001A978145E3FCE8D67D1585BB0E
:100604008145014582800000732540F181426303E6
:10061400550019A817310018130181A1856293822E
:1006240002801691EF20105809A073005010F5BFF6
:100634000000000023AA150280DDC4DD23A02505E7
:1006440023A2350523A4450523A6550523A865053E
:1006540023AA750523AC850523AE950523A0A5071C
:1006640023A2B50723A8250223A2B5080321050365
:100674000322C50883204503005D445D0329050466
:1006840083294504032A8504832AC504032B05050D
:10069400832B4505032C8505832CC505032D0506F1
:1006A400832D4506828082801C45DC4382877971D4
:1006B4004AD022D426D24ECE52CC56CA5AC806D6D6
:1006C4002A84A149130AF007B54A1389810E1C44F0
:1006D400FC43C5E31C44DC5BD5EB1C449C4F91C735
:1006E40005469305F100228582978345F1006384D2
:1006F40035016394450383A7018FE35AF0FCFD178A
:100704002285A14523A8F18E453722859305000251
:10071400613FA1452285493F5DBF2285713703476B
:10072400F10063055701A9476317F7022285B54510
:10073400A53FA94522858D3F83A7018FCA972380B2
:10074400070001468146CA8513858189EF5010163A
:1007540023A8018EADBF83A7018F9306E003E3C8EE
:10076400F6F693861700CA9723A8D18E2380E70054
:10077400B9BF2285829739FDB2502254925402594E
:10078400F249624AD24A424B45618280228582976D
:1007940029F5DDB73785000875711305855306C73C
:1007A40026C34AC1CEDED2DCEAD0EECE22C5D6DAEA
:1007B400DAD8DED6E2D4E6D2B7890008EF10001DFD
:1007C400138589553709C0FFEF10401C59199384CC
:1007D4008112370A0020854D00087D56FD56A285FA
:1007E40013858189EF50F00C2285EF60504C2295DF
:1007F40059476310A406FD557D5613854188EF5073
:10080400101A9C4003ABC40083AB04013EC2DC401D
:1008140003AC440183AC84013EC49C443EC61385AE
:100824004188EF50F025B78500089385C556228589
:10083400EF70E04815EDB246224692453785000830
:1008440013058557EF10801413858955EF10001494
:1008540061B78347F5FFD91793F7F70FE36DF7F8FF
:10086400B357F940858B7D15D9F72300050051B79F
:10087400B7850008938585582285EF70404409E9BF
:1008840037850008E2865E86DA85130545595DBF23
:10089400B78500089385455A2285EF70404209E9DF
:1008A40037850008E6851305055BEF10200E69BF48
:1008B400B78500089385C55B2285EF70404019ED2C
:1008C400B2462246924537850008E6886288DE876C
:1008D4005A871305455CEF10600BBDB7B785000858
:1008E4009385855E2285EF70803D19E503A5418FD0
:1008F400232A0A0E852389BFB78500089385055FDF
:100904002285EF70C03B01E5232ABA0F35BFB785B6
:10091400000821469385855F2285EF60D03A19ED62
:1009240013059101EF60D039B7070020AA8523A8E9
:10093400A70E378500081305456085BFB7850008F5
:10094400938585612285EF70803711ED3785000826
:1009540013050562EF108003378500081305C5648D
:10096400EF10C002D5B53785000813050567CDBF64
:100974001971E2CC86DEA2DCA6DACAD8CED6D2D4ED
:10098400D6D2DAD0DECEE6CAEAC8EEC603A5818F97
:10099400EF5060280DE56654F650D6544659B659C2
:1009A400265A965A065BF64B664CD64C464DB64DC7
:1009B400378500081305456809616F00307D03A57C
:1009C400418FEF50402561D99307B016231AF100E7
:1009D4005C083ED4894703A5818F3ED62308F102E3
:1009E4008347010318459306800693E727002308ED
:1009F400F1021C4705462C1082978567938757E4BC
:100A04003EC6938D8112370D00201307B003A3094E
:100A1400E100130731013AD405473AD638083ADAE7
:100A240039473ADC1D4703A5818F23080102230EB1
:100A3400E1020347C1031445094613672700230E47
:100A4400E10298462C109306800602970357810111
:100A54009306803EB247931B87002183B3EBEB00E0
:100A64000357A101C20B93DB0B01131B87002183E6
:100A7400336BEB000357C101420B135B0B01931A59
:100A840087002183B3EAEA00C20A93DA0A01B38B2E
:100A9400DB020357010213063008131A870021836F
:100AA400336AEA0013074006420A135A0A01330B59
:100AB400DB0293DBEB40B38ADA0283562102135B39
:100AC400EB4093998600A182B3E9D9008356410291
:100AD400C20993D9090113998600A1823369D90007
:100AE4008356E10142091359090193948600A182B6
:100AF400D58CC204C180B384E40293DAEA40330A99
:100B0400EA02B389E9023309E90213074015B3C4C1
:100B1400E402334ACA02BE94B3C9C9023349C902C2
:100B2400FD557D5613854188EF50606723A07D01F4
:100B340023A26D0123A45D0123A64D0123A83D0139
:100B440023AA2D0123AC9D0013854188EF504073E7
:100B540003274D0F6304071003A5418FE52C03A55C
:100B6400418FB78700089386876A0146D145AD2C2B
:100B740003A5418FB78700089386876B3D4681455F
:100B8400A52403A5418FDE863D46F945492C03A5DE
:100B9400418FB78700089386C76B65468145A924B2
:100BA40003A5418FDA866546F945952C03A5418F47
:100BB400B78700089386076C1306300281452D24FD
:100BC40003A5418FD68613063002F945892C03A567
:100BD400418FB78600089386466C3D469305000511
:100BE400212403A5418FD2863D469305E006052CBA
:100BF40003A5418FB78600089386866C65469305E6
:100C04000005DD2203A5418FCE8665469305E006E7
:100C1400392403A5418FB78600089386C66C130652
:100C2400300293050005C92203A5418FCA86130625
:100C340030029305E006E52203A5418FB78600083C
:100C44009386066D1306C0038145792A03A5418F57
:100C5400A6861306C00393052003D122370700207C
:100C64008325070F63D30500814529473385E502B2
:100C7400B395E502EF50107C49BB4111378500085C
:100C840022C4930785E323AEF18EB78700084AC0D8
:100C9400938747E523ACF18EB787000826C2938774
:100CA40047EC06C623AAF18E130585E3EF40B07620
:100CB40011ED378500081305856DEF00304DB24006
:100CC40022449244024901454101828003A5818F57
:100CD400EF40707479DD03A5418FEF40D07371D973
:100CE40003A5C18F1C4589CBBC4799C7B70500082C
:100CF40001469385256B829703A5C18F1C459C579C
:100D0400DDDF82976DBF7971938706FD22D426D2E9
:100D14004AD04ECE06D652CC93F7F70F2547AA8475
:100D24002E89B289138416FD637EF7029387F6FB3E
:100D340093F7F70F65471384A6FC6375F7029307CF
:100D4400A003638FF600930700020144638CF6004E
:100D5400B250225492540259F249624A4561828047
:100D64001304500213060006814513854128EF60E1
:100D74001074954737860008B306F4021387412898
:100D84008147130606707D5E1D439548B385D700E1
:100D9400B29583CE05000145BA8533D8AE401378A9
:100DA4001800630408002390C5010505B105E31686
:100DB40065FE85070907E39B17FD930700063EC2FE
:100DC400B707080099073EC499473EC69C4413964A
:100DD4000901931509019C47138741285400418256
:100DE400C18126858297ADB7011122CC26CA4AC893
:100DF4004EC606CE2A89AE84B28936848346040060
:100E040081EAF2406244D2444249B2490561828097
:100E1400A6854E864A85C53D99040504C5B70111CA
:100E24004AC832893796000822CC26CA2A84AE845E
:100E34001306C691C1450A8506CEEF60006D8A8609
:100E44004A86A68522854D37F2406244D2444249FF
:100E54000561828079714AD026D213060014AA84CF
:100E640081451385411422D44ECE06D6EF603064FA
:100E7400930700143EC2C1679387070A3EC49307D1
:100E8400000A3EC60144930900059C44131604015C
:100E9400138741149C4754004182814526850504EB
:100EA4008297E31434FFB250225492540259F24907
:100EB400456182808E052E9503552500058182802B
:100EC400411106C622C426C22A84AE84E537EFF057
:100ED4002FB6FD473385A740131725002297032813
:100EE400070193973400938547009396040199076B
:100EF400A295A297C1826312080205463315A60083
:100F04005044498E50C404CB2390D5002390D7007D
:100F1400B2402244924441018280131738001107E1
:100F24002297035607002390C5000E06239007015D
:100F340032942313D4002310D700D9BF01117116A2
:100F440022CC26CA3384C50093847500E198619845
:100F540006CE4AC84EC6058C9359340004C123A456
:100F6400340123A604004E85EFF08FAC1309400230
:100F74003309A94013060002098E0A098145138525
:100F840004011D090A06EF609052135939009317A2
:100F9400190093E717002391F4003387294193172D
:100FA400390023900400A697931617002391D700C5
:100FB4002390270126948E09231104002310E400B2
:100FC400A69983D72900CA85268593E7170023911C
:100FD400F9006244F240D2444249B2490561CDB5B8
:100FE4007571937746003EC406C722C526C34AC11D
:100FF400CEDED2DCD6DADAD8DED6E2D4E6D2EAD055
:10100400EECE93773500639F073E135D3600137D64
:101014007D00AA84AE89B68A050D1304450005C572
:101024009D4763E8B7021155BA402A449A440A49D5
:10103400F659665AD65A465BB65B265C965C065DE4
:10104400F64D4961828093F97500A1474E94B389A6
:101054003741B78700089387077C3EC6C1679387EB
:10106400A7FD937C26009385FAFF014C814D814BAB
:10107400014AFD56114B11492143114E930EC004F0
:101084003EC81306500299C0232054016342A02194
:10109400B78700089387A7CD63E8FA00B7970008DD
:1010A4009387475E63E6FA1E330594409357250001
:1010B400639D0C223D45636A7519638E0422138572
:1010C4000B031308010242952300F5FE2308D5FE05
:1010D400850D01A4214B214983C715008505638033
:1010E400072463190A00E399C7FE8506054A114BD4
:1010F4001149DDB71305A0076366F5061305B004AF
:101104006365F50213057004636EF504130590021C
:101114006368F5026387C7046366F604E38E77FAAF
:101124009387D7FD13BA170045BF938747FB93F7FF
:10113400F70F63E9F80232458A07AA979C4382872E
:101144000545938767FDB317F50042457D8D49F545
:1011540033F5570029ED13FA1700E30F0AF6814718
:1011640005A0FD16014A8DBF83C7F5FF6398E70C00
:1011740083C7E5FF6397E70C8147014A214B214967
:101184007D145A943354640333046403E5C0330573
:1011940099402295E3E9A9E8F5E76316C90B03250D
:1011A40008009307480008C011043E8891B703CA99
:1011B400F5FF631CDA05032508009307480041493D
:1011C4000328050042D00328450042D203288500A5
:1011D400484542D42AD67D144A9433542403330414
:1011E400240385C0330599402295E3EEA9E2631BED
:1011F400DA03025508C0125548C0225508C43255B6
:1012040048C44A943E884A8BB1BF1D08137888FFAE
:10121400032F0800832F4800930788007AD07ED2DA
:10122400214955BF025F925F2320E4012322F40188
:10123400C9BFD287014A114B114999B78147014A65
:1012440081B78147C5BF630469002955F1BB930782
:101254007800E19B03AF070083AF47001388870042
:101264002320E4012322F4012104B5B581EF93077F
:101274004800E30BC9F3E31A69FC1D08137888FFDF
:101284002108DDB7832A08007D1D13074800E5BB4C
:1012940063820C0433059440935725000548130FCB
:1012A400F01FE364AFFA3D45E36175FBA9C0138504
:1012B4000B0393080102469593F7F70F2300F5FEFD
:1012C4002308D5FEE30608E093E707F82300F5FEBC
:1012D400050C850B3A8811049308E0021307C00635
:1012E400B702803893030002C5BB01484DBF6304B5
:1012F40008008509F9BFA2478909E1FF56853ACE5E
:101304002ECC36CAEF60A01A7247E245D246AA999B
:1013140013065002930EC004114E21435DBFB30760
:1013240094401307F03FE362F7F289E4138589FFE1
:101334003E95DDB9898323A004002380F400A247ED
:1013440093FDFD0F95C3A381B4012381840163162A
:101354000C04054B13090103814C330B9B4063922E
:101364009B0533059440C9B1A380B401F9BF181893
:101374003E9703470700131687016186635B0600E7
:10138400338686001377F707E3EFC9C82300E40028
:1013940005048507E39DFBFC6DBF85468147858E6B
:1013A400D5BF63060C008307090063CC0702A2477C
:1013B40085CF9C00E69783C707000504014AA30F65
:1013C400F4FEB3078B00D297E3EFF9C48347090017
:1013D40005045286A30FF4FED6852285EF60D00B58
:1013E4005294850C0509A5BF834709008A07A6976F
:1013F40083AA070023A007005685EF60400B130A59
:101404001500C1B749550DB1D9CA011122CC26CA5C
:101414004AC84EC652C406CE56C25AC083C7360006
:1014240003C7060003CB160086070A07BA9703C74B
:101434002600AA84AE89BA9732893684B697014ABF
:10144400636F6A03034754008347440003467400F0
:1014540022075D8F83476400620693068400C207F7
:101464006244D98FF240224A924A024B5D8ECA8569
:1014740026854249D244CE87B24905618287938A40
:10148400170083C707005685050A8A07A29723A079
:101494005701EF60C00193071500D69755B729553A
:1014A40082802A87814601459308A003130300071D
:1014B400130E5002834707001308170081CF15C984
:1014C400639CB600638D6702138707FC1377F70FDD
:1014D40063E1E80201458280138607FC1376F60F68
:1014E40063E9C800834717008506130827000145F0
:1014F40099C76394C70113451500428765BF82806D
:10150400717122D526D34AD152CD62C5EEDE06D7FB
:101514004ECF56CB5AC95EC766C36AC10019935DE4
:1015240037002324D4F82322F4F8232E04F7834A23
:101534002500AA842E89328A3A8C93FD1D0081ED00
:10154400834B1500034505000A0556952695636AE5
:1015540079053309954083C734002320F4F8638563
:101564000A0093771C00B9E7832704F8D5E76307DB
:101574000A00032684F8CA852685029A4A8B130139
:1015840004F5BA505A852A549A540A59FA496A4AAF
:10159400DA4A4A4BBA4B2A4C9A4C0A4DF65D4D61D5
:1015A4008280930915004E85EF50707005054E95A5
:1015B400050971BF83CB0400DC40939C2B002326D8
:1015C400F4F8B3859401631C0A264A8B814B0149C4
:1015D400B386250183C606002324B4F88A06A6969A
:1015E4008842EF50D06C832744F8832584F805059E
:1015F40089CF8327C4F763FAFB00832744F89396C3
:101604001B00850BBE962390A60005092A9BE36167
:1016140059FDB38C55011DA093772C00A9DB83CB16
:101624000400DC40939C2B002326F4F8B38594013A
:1016340063110A104A8BB38C5501814B832704F83C
:1016440093795C0093B91900139D1700378A000839
:1016540093772C00B79A00088509669D130AAACDD2
:101664002324F4F8938A4A5E137C1C00E389ACF1CA
:1016740083C50C00890C03C7FCFF0A0726970329BE
:10168400070063644901636E5905638B0D060325E6
:10169400C4F82320B4F83135832504F835C10A8908
:1016A40079710A86379700081307C7878327C4F818
:1016B40058CA130700202310E60237070001110758
:1016C4004CCE1CCE18CA8965378500088146410670
:1016D4009385054813058531EF009075791B4A8180
:1016E40071B7638A0D000325C4F82320B4F8553B71
:1016F400832504F84DF563180C00330B3B41BDB74B
:10170400832784F8A5D74A85EF50705A832744F875
:1017140099CF8327C4F763FCFB00832744F813970E
:101724001B00930615003E972310D700850B2A9BB8
:1017340035BF638B0A1093774C0063870710568D6F
:101744008149130504FB5686232CB4F6EF60C0547C
:10175400832584F7832704F8338B55018607232ACE
:10176400F4F6DA97232CF4F6B78700089387A7CD0D
:101774002328F4F693772C002326F4F6B797000871
:101784009387475E2324F4F693771C002322F4F610
:1017940093774C002320F4F6832784F76319FB0A1C
:1017A40083CD140093772C000146B386B90193F6D8
:1017B400F60F99E313561D0093771C00814589E7C2
:1017C40093774C0091C3EA85A381C400032684F86F
:1017D4002381B400A380D400E6852685029A2A8B4F
:1017E400E34F05D8832704F8032684F82380740183
:1017F400A380B40123815401A381F400EA85130575
:1018040004FB029AAA8B634A0516832744F7B3059F
:101814005941032684F8032584F7B38595419D8DAA
:10182400029A634E0514DA9B338BAB00814C63EE52
:101834003C0D032684F881450145029A89B3D68973
:10184400014D130504FA01B78149014D21B78345C0
:101854000B00032704F7090B0346FBFF931726002D
:10186400A6979C4363E6E700032784F663E7E7044F
:10187400638E0D000325C4F8232CC4F4232EB4F482
:101884000D318325C4F5032684F519F58327C4F6A1
:10189400B9E393071D0013070DFC93F7F70F330506
:1018A4008700938707FC2308B5FE13082D00A29731
:1018B400137DF80F2388C7FEC5B5638B0D00032580
:1018C400C4F8232EC4F4F13E0326C4F5E31605EC54
:1018D400832744F681CF138709FC93871900B30942
:1018E40087002380C9FE93F9F70F7DB5832704F69B
:1018F400E38407EA13070DFC93071D0033088700F0
:101904002308C8FE13FDF70F41BD930704FA33877C
:10191400970103470700832744F8814BA30FE4F89A
:101924000A072697832A070081CF8327C4F763F920
:10193400FC00832744F813971C003E97835B070041
:10194400032684F885451305F4F9029A63490502D0
:101954002A9B639A0B005685EF507035930B150044
:10196400C20B93DB0B01032684F8DE855685029AAD
:10197400634705002A9B850C5DBD2A8B09B12A8B20
:10198400FDBE0145828023A4A180828039712ED2BC
:101994004C1006CE32D436D63AD83EDA42DC46DE95
:1019A4002EC6EF00E076F24021618280011126CA42
:1019B4004AC806CE22CCAA842E8932C636C4EF5039
:1019C40020302246B2452320A2004A858294032572
:1019D4000200EF50E0421C49A18B99EF58451C418D
:1019E40063F6E700B307F740014529A01851054500
:1019F400B307F7409CC182808147FDB701116C0099
:101A040022CC06CE2A84C13F11C5B2475844FD17E3
:101A1400BA973EC60850B247F24062441D8D7D1508
:101A2400056182802A871C53184B3305B600058B49
:101A340001C7FD177D8D82806363F5001D8D828053
:101A4400411122C406C62E864C452A84E13F1C4817
:101A540048C4DD9B1CC8B24022444101828001116C
:101A640022CC06CE14415C4D139725008A06B69706
:101A74001367270098C32E862EC60C412A845D372F
:101A84005C4408C032466316F5001C4893E787009F
:101A94001CC84C402285793748C0F2406244056135
:101AA4008280011122CC4EC656C25AC006CE26CA26
:101AB4004AC852C45C450329C501AE898A073E99C8
:101AC4008325090089472A8413F73500B28A368BA7
:101AD4006305F7022320060023A006001C48898B17
:101AE40085EB014AF2406244D2444249B249924AE7
:101AF400024B5285224A0561828023200600898197
:101B040023A00600E1DD2D3F5C441CC4054AD9BF77
:101B14001C4C4A85829783270900AA8413FA17006C
:101B2400E3010AFC898B85CF63850900CE85228574
:101B34003D374C4026862285F5351C444C4448C02C
:101B44006397F50026862285F13D08C4014A1C44AA
:101B54001CC05CC41C4893E787001CC861B7AA85F5
:101B64002285F93D5C441CC46388090018405C4C20
:101B74000A07BA9723A00700338634012320CB0039
:101B84000C40228545351C4808C093E787001CC8D3
:101B940083270900F99B2320F90023A02A01BDB75C
:101BA400411122C426C24AC02A8406C6AE843289A0
:101BB400953D1C40639CA7001C4804C0DD9B1CC8C9
:101BC400B240224492440249410182805C4C131782
:101BD40029008A0413672700A69798C34C404A86B5
:101BE4002285893548C0E9BF1C49918B95C34111B1
:101BF40022C406C626C244512A840935A68763F343
:101C0400A400AA875CD0B24022449244410182805D
:101C14008280411126C27146AE84814522C406C623
:101C24002A84EF60C008DC441CCC9C445CC89C4003
:101C34005CCCDC40232204021CD0984899C79386CC
:101C4400F7FFF58F99E31367170018C8130584028B
:101C54002244B24092440546814541016F40406CA4
:101C64005D71CAC086C6A2C4A6C24EDE52DC56DA74
:101C74005AD85ED662D466D21C5102CA02CE014939
:101C840063E9B7062A84AE89328AB68A014B0149D0
:101C9400B36BD600F37C04307246668C09C6DA85D1
:101CA4002285FD3D02CE2C0822853533E245AA84E7
:101CB40063E435071C400329C4014E868A073E9914
:101CC400834709002285F19B2300F9000C40993BCE
:101CD4005C4408C0630DF5028144137C8C007320BE
:101CE4000C30D24591C55C4899C32285829702CABB
:101CF400D5F0B64026449644F259625AD25A425B11
:101D0400B25B225C925C4A850649616182801C4810
:101D140093E787001CC8C9B701C52285893375BFFD
:101D240063880B022EC6EF40A072B24515E193FC06
:101D34008C00638F0C0073A00C30D285568613057B
:101D44008402EF402066737C04309334150071B72D
:101D5400740850082285032B0400A133AA84B5BF5C
:101D6400411122C426C206C64AC01C4D2A842E85AF
:101D7400AE8482972A86737904309C402285137935
:101D8400890093E717009CC04C40693948C02285FC
:101D9400A13D73200930B2402244924402494101DA
:101DA4008280797122D452CC06D626D24AD04ECE25
:101DB4002A848146094A7379043018481C44218BCB
:101DC40011E750403307F6406374F60018501D8F36
:101DD400444C1379890011EB7320093089C613052B
:101DE4008402EF4060558144B9A88A07BE949C40A0
:101DF40013F7370075D36316470193D92700639906
:101E0400090013F717000DE31C4C26858297AA8955
:101E14000C444E862285393108C4CE8522850D3185
:101E240073200930854641BF93E727009CC00C44CA
:101E34001C4C26852EC68297B2452A862285DD361D
:101E440008C473200930B25022540259F249624A3C
:101E54002685925445618280011122CC26CA4AC843
:101E640006CE4EC61C4D2A842E85AE8482972A89BE
:101E7400F37904309C4013F7E7FF98C01848098BA6
:101E840019C75444584C8A063697639EE4029C4012
:101E9400F59B9CC01C444C446396F5004A862285FD
:101EA400513608C4CA852285613E93F9890073A01E
:101EB4000930130584026244F240D2444249B249D3
:101EC40005616F40604713192500898BB3E727012B
:101ED4009CC0E1BF737704301C491445A18B91E782
:101EE4005041B307D6406374D6001C51958F218BA3
:101EF400732007303335F000828082806F109001A8
:101F04006F10B002F3770430735040307350403494
:101F14008280411106C622C473740430EF30500D20
:101F24009377840073A00730B24022444101828039
:101F340083470500918B81EF1C4113D597001375DE
:101F4400F57FD1833E955D056199098182800145C4
:101F540082800145828001114AC83789000826CA57
:101F640056C25AC006CE22CC4EC652C4AA84AA8AED
:101F7400054B1309093781ECF2406244D2444249CB
:101F8400B249224A024B5685924A056182802685CF
:101F9400EFE0CFAD13144500B309890083C7C9002E
:101FA400331AAB00134AFAFFB3F44401E9D783A709
:101FB40009009C4B91EB4A945C4011464E858C433E
:101FC400B3FA4A01152345BF4E8582974DF5E5B70F
:101FD400AA8705470F00500F2FA5E7048280B72575
:101FE40000080111014693856505138581EE06CE2F
:101FF40022CCEF50C03981470148B7260008B735D5
:10200400002042C63EC402C0B94801480147938635
:10201400463A13060030938505D3138581A5EF4016
:10202400A04DB7950008138581A593850594EF40CD
:10203400C042F2406244014505618280411106C6F6
:10204400EF50802129468146EFE00FA6B2404101BE
:1020540082801385018C6F40202E011156C2AA8AFA
:102064001385019152C406CE22CC26CA4AC84EC654
:102074005AC02E8AB13F2DC98144F240624442497C
:10208400B249224A924A024B2685D2440561828093
:102094008347C4008DC31C40DC4799C322858297C3
:1020A4005C40238367011C409C4B85EB5C401146DC
:1020B40022858C43152985094104E36B24FDE38EB5
:1020C4000AFADDD82685413DAA84E30C0AFE81453F
:1020D40013054006EF401036EDB72285829779D577
:1020E400B3173B01DD8CC1BF378400083789000872
:1020F400AA8913040437814413090938054B75BFB1
:10210400B79700080A059387C795AA9788438280E2
:10211400AE882A88814701478146014681450145A9
:102124008DA5AA8701CD41112E8506C623A6F1806F
:10213400EF00D03FB24001454101828029558280A1
:10214400411122C483C7419306C689E71385018CD4
:10215400EF40801E8547B240238AF1922244410118
:102164008280411122C42A841385819006C68D354C
:1021740001C87D579387C1900F00500F2FA0E7042B
:10218400138581EEEF50A02A2244B2401385018CBE
:1021940041016F40601A0545E9B701459387819075
:1021A4000F00500F2FA5A70C8280411122C426C214
:1021B4004AC006C637840008CD37B78400082A8988
:1021C400130404379384043863689400B2402244AF
:1021D40092440249410182805C4083C7570099C7F9
:1021E4001C40DC4381C7CA85228582974104E9BF2C
:1021F400411122C4B7950008370400201305841345
:102204009385859406C6EFF0DFA013048413B240CF
:1022140023A08190224441018280A38A0192372520
:102224000008411123A401909305803E1305050481
:1022340023A6019006C6F535653F37870008378623
:10224400000893070737930607371306063863E534
:10225400C700B24041018280CC433387D740118705
:1022640005072382E500C107DDB7AA8537050020ED
:1022740001468146130585136FF09F9E37050020A4
:10228400130585136FF0FFB1AA8503A50190E9B684
:10229400370500201305851335B983C74193CDC78E
:1022A400411126C206C622C44AC0C93FAA8441E5D8
:1022B40083A781906358F002EF40107A2946814643
:1022C400EFD09FFE83A7018D03A7418DB307F5408F
:1022D4003335F500998D6396A5001307803E63732B
:1022E400F700E13583A7018D83A6418DB2401387A2
:1022F400873EB337F700B69723A8E18C23AAF18C65
:10230400224492440249410161B75C4083C75700AB
:1023140091C71C40A68522859C4382974104E366AD
:1023240024FF268595377D579387C1900F00500F62
:102334002FA0E704B5BF37840008378900081304C9
:10234400043713090938E1BF0145828041114AC0AD
:1023540083C7519306C622C426C29DE38145054521
:1023640037840008B7840008CD39130404379384F4
:102374000438636D940015377DFD8547A38AF19277
:10238400B240224492440249410182805C4083C7A6
:10239400570089C71C4022859C4782974104D1BFBE
:1023A40079718145014522D406D626D24AD04ECE33
:1023B40052CC56CA5AC85EC662C445312A8425C165
:1023C400130A401F814A8327020023A2F19091CB74
:1023D40003A7C190A54763D6E7001385018CEF30AE
:1023E400B075B7890008014BB78B00089389093889
:1023F40001C82285EFF03FB62A8419E17D5AFD5ABF
:10240400693D2A8919E993840B3763150B02D28538
:1024140056861385018CEF30F0784A8BD1BF7D5AF4
:10242400FD5A55B79C409C4F89C701468145268576
:102434008297C104E3E834FFD9BF41111385C190E9
:1024440006C622C4EFF0DFB883C7519399CB7374E7
:102454000430A135218873200430B2402244410164
:10246400828083A74190F5DB11ED2244B240896557
:1024740081460147938505710146138581EE41012B
:102484006F40D072A547E31AF5FC138581EEEF4047
:10249400107A2244B2401385018C41016F30D06917
:1024A40083A7C180011106CE2AC68297B24588C58A
:1024B4003705002013058513EFF09F8AF24005616C
:1024C400ADBF0145828037870008B787000813072E
:1024D400873193870737998F8D83014563F5F5001D
:1024E4008E052E97084382805C410547A383C7006D
:1024F4005C418CC35C41A382E70099B18DCD41114D
:1025040022C426C206C614465842AA872E84158FB2
:10251400B2841155636CB70008422E86BE85369589
:10252400EF5080779C442285A2979CC4B2402244F9
:102534009244410182800145828011E11DB1411123
:1025440022C426C24AC006C62E892A84B284B6850D
:1025540091CA93579600410593F7F77F51823E95B0
:10256400EF50807304C02322240122852244B24008
:102574009244024941012DB779714AD0138916005A
:1025840026D2931429004ECEAA8913857401619929
:10259400098122D452CC06D62E84328AF931A3067C
:1025A400010023070100A30701002306210119CD1F
:1025B400B2471387C4FF1CC98147B306FA0090428F
:1025C400B306F5009107D0CAE399E7FE1A04A604FE
:1025D4001374041C37061000458C130606FC618E28
:1025E4002254B25092540259624ACE85F24981462D
:1025F4004561A1B7011132C68546700006CEAD3FD4
:10260400F24005618280011132C436C63000894629
:1026140006CE9D37F24005618280011132C236C474
:1026240050008D4606CE3AC6813FF2400561828055
:102634005D71A2C4A6C2CAC04EDE52DC56DA86C69A
:102644005AD85ED662D4800893D9950093F9F97F5D
:102654002A8A2E89B68A93D44501638C0910328B59
:10266400930644FC232204FC232404FC232604FCB8
:1026740011489307C4FB29470146CE855A85EFE0EC
:102684003FE89306F07FCE8B2A8C63FBA606834734
:102694005B0003474B008A84A207D98F03476B0072
:1026A40079710A8642075D8F83477B00E207D98FE1
:1026B4001CCE930700202310F60237970008B707B3
:1026C40000011307C797910758CA54CE1CCA8965DD
:1026D40037850008814641069385054813058533EF
:1026E400813F2681130104FBB640264496440649E3
:1026F400F259625AD25A425BB25B225C61618280B7
:10270400DD04AA94B707F0FF9379F57FE1989387E6
:10271400F71F13979900B377F90013D5240033E911
:10272400E700EFF09FB4AA841DC59307050137267F
:1027340000082322F4FC232484FD232604FC1148EE
:102744009307C4FB2947930644FC13060650DE8511
:102754005A85EFE0FFDAB707F0FF9387F71FA60962
:102764003376F900D68633663601D2852685F13371
:1027740095BFDD04E19813D52400EFF01FAFAA84C0
:10278400D9BF397122DC26DA4AD84ED652D456D271
:102794005AD05ECE06DEAA8B2E8A3284B68ABA84DA
:1027A400BE894289468B630408043E86C145468738
:1027B400C2860145EFE0DF829307F07FAA8563F9C3
:1027C400A7026254F250D2544259B259225A925A30
:1027D400025BF24B37960008378500089306F07FBA
:1027E4001306C69B894513058533216129BD81459F
:1027F4001D8893FB7B001A048E0B9397950033641A
:1028040074015D8C93974401DD04AE94E19813D573
:1028140024005D8C2EC6EFF05FA5AA8411C963095C
:102824000900B2455A87CA864E864105EFE04FFB40
:1028340022866254F2504259B259025BF24BD68658
:10284400D285925A225A2685D2542161FDB148413B
:1028540011C9B7870008938787311D8D0D81420503
:10286400418582807D558280011122CC26CA4AC8C6
:102874004EC606CE2A89AE843284B68901E8F24077
:102884006244D2444249B24905618280A2852685C8
:102894004E860299098CAA94D5B7411122C406C662
:1028A4005C412A840C45D44390430841753F5C4005
:1028B40023A00700B240224441018280397132D4FE
:1028C4002E86AA853735000836D61305C5903410F0
:1028D40006CE3AD83EDA42DC46DE36C6EF00705504
:1028E400F2402161828093F7050191EF93F505028F
:1028F40091C5B78500089385C566C9B7B795000823
:102904009385459FDDBF8280DC41411122C426C2EC
:1029140006C69843DC45AA842E846314F7002E85EA
:10292400AD3F5C4085460F00500F2FA7D7041C44D1
:102934000145BA9723809700B24022449244410152
:102944008280411122C426C206C6A9472A84AE84C5
:102954006314F50035454D3FA68522857537B24091
:10296400224492440145410182805D71CAC04EDE19
:1029740052DC56DA5AD85ED686C6A2C4A6C262D43F
:1029840066D26AD06ECE2AC4C6495649B68BBE8A70
:10299400428B468A638C071493771900B28CAE84F9
:1029A4003EC6EFF01FB2937D2900137D8900137496
:1029B40009102A86014C01C92245B7950008938560
:1029C40005A0ED3D2A8C638D0D0093774904B5EB8A
:1029D4002245B79500082686938545A0C5352A9CCF
:1029E4009377190085C7B797000813972A00938730
:1029F40007AABA97904309E6379600081306869FFC
:102A04002245B79500089385C5A24D3D59C4631D61
:102A14000D0C8144638A0C002245B7950008668634
:102A2400938505A3613DAA84E29463110B0E639D13
:102A3400090E937719006399071E2245CA856535E7
:102A4400D9A283A781910145D9DB03A741910566EA
:102A5400130606E1B3D4E4021307803E9306C003D1
:102A6400B3D5F402B3F4F402B384E40233F8F40209
:102A740033F5C5023308E80233D6C502B79500081A
:102A8400938505A13377D5023358F802B356D5029E
:102A94002245B3D7F4021D3599B7814463010D0271
:102AA400B797000813972A00938747ABBA979043C8
:102AB4002245B7950008938545A30935AA84638AFE
:102AC4000C002245B79500086686938505A3FD335F
:102AD400AA94E38B0BF42245B79500085E86938590
:102AE400C5A3E93BAA9489B7814B5DBF8547639829
:102AF400F6006310080E63880910814435A0E30CC6
:102B040008FE3735000813056594C1A83735000859
:102B14001305C5902246B7350008DA8693856563A8
:102B2400EFE09F8E638F090C414CB79B0008B79C64
:102B340000084E8B63733C01414B2245CA85014D0D
:102B44005D33634E9D0803460A00224593854CA4D9
:102B5400054DAD3393777D0089E7224593858BA39B
:102B6400B13B63746D09B307AA0103C6070022458C
:102B740093854CA4A133050DE31E8DFD2245B79723
:102B84000008938507A51D3B01440147130DE0058B
:102B9400B79D0008529703460700130706FE6374A7
:102BA400ED001306E002224593854DA5013B050483
:102BB400630484051377740009E7224593858BA386
:102BC400F5392287E36864FD224593858BA3FD31A3
:102BD400F9BF373500081305C590814425BF224548
:102BE40093858BA3050DD939A9BF2245B797000852
:102BF4009385C7A4E13141B7B38969415A9AE39AED
:102C040009F2E3980AE226442245B640964406496E
:102C1400F259625AD25A425BB25B225C925C025D08
:102C2400F24D61616FF07FC7224537960008B79572
:102C340000081306869F9385C5A2EFF03FC8F5BB35
:102C4400797122D426D24AD04ECE52CC06D656CA58
:102C540098412A892E85935967000D8383AA85009C
:102C64002E84328A93747700EFF07FBE93F9790053
:102C7400814663470500AA852685EFF0DF84AA868E
:102C84001840130804019357970093F7F77F518373
:102C9400B308F80091E3014852C23AC0CE87D68502
:102CA4004A8501470146EFF05FCCB250225492545A
:102CB4000259F249624AD24A456182800111896708
:102CC40022CC06CE26CA4AC89387F77004412A84C8
:102CD400BE8663E3B700AE86379600081306C69136
:102CE40095452800EF4070025C40B79500082A899A
:102CF400D44326852D46938545A7EFF0FFB65C4067
:102D04004A862C00D4432685EFF01FB65C40B79565
:102D140000082685D4436D46938585A5EFF0DFB47E
:102D2400F2406244D24442490561828037470F0031
:102D340081468547130707246369A70091E2854705
:102D440023AAF19023ACA190828005818607854651
:102D5400E5B75C4101459C43DC438CCB82805C41FC
:102D64009C43984358435CC38280011106CE22CC15
:102D740026CA4AC84EC652C45C4185469C43D843C1
:102D8400230AD70080435C4083290400032984007C
:102D9400844303AA470081EC5C4023A00700F2406F
:102DA4006244D2444249B249224A05618280A685DE
:102DB4004A8552868299898C2A99F1BF5C419C4349
:102DC4008843EDBD011106CE22CC5C412EC6804362
:102DD4005C40884BEFF0CFB2AA8708406244B2450A
:102DE400F2403D460561828701114AC837890008CF
:102DF40022CC26CA4EC606CEAE842A84B309B500B8
:102E0400130989E3631A3401F24062444249B24926
:102E14002685D24405618280834504008327890086
:102E24004A850504DC438297F1BF82808280AA87A9
:102E34002E8783C5470083D767000841D98F37079A
:102E440010007D8F832885000328050111CB3707E7
:102E54000C00B3F6E70089C693F6170091C2B98F48
:102E64003706F0FF7D167D8E0547858B8326080087
:102E74003317B70081CBB3E7E6002320F80083A71C
:102E8400080082871347F7FFB377D700FDB7AA87F7
:102E940083C64700084185472E87B395D7001C4950
:102EA4009C43ED8F99C31347170001C71C45DC47AA
:102EB40082871C459C4BEDBF5C4188431C459105B2
:102EC400DC438287411106C622C426C24AC040415F
:102ED4005C488DC751042E8922858545B284453FBF
:102EE40063400502A6854A85EF30D05422852244EA
:102EF400B240924402498145410151BF1305A0F7F4
:102F0400B24022449244024941018280411106C6E2
:102F140022C426C24AC04441032905018840EF2047
:102F2400904F05E53796000837850008130646B12B
:102F3400854513050535EFF0EFEB3554B240228596
:102F440022449244024941018280C84015C9138435
:102F54004400EF20504C75D12285B7050200C13DD5
:102F64002A84635F050037960008AA861306C6B252
:102F740037850008854513050535EFF0CFE87DBF9B
:102F8400C84815C1D104EF20104945D9B70516002A
:102F94002685713D2A846358050037960008AA8661
:102FA400130686B5F1B74A85EF30601E014479B740
:102FB4005D71A6C2CAC04EDE52DC56DA5AD886C645
:102FC400A2C45ED662D4032C4500832B05012A8952
:102FD400AE84B28A368B3A8ABE89FD557D565E85AB
:102FE400EF30E01B2A846342050803C704008947C5
:102FF4001304A0F76318F7060347CC01A147631332
:10300400F7061C083ECC1307F1008547A3076101AE
:103014003ECE3AC83ECA03294900014463820A02EB
:10302400814513054900A535032509001C45814642
:1030340030089C439385440082972A8463440502A4
:103044006382090285451305490052C84ECA813579
:10305400032509001C45814630089C4393854400A0
:1030640082972A845E85EF30A021B64022852644CB
:1030740096440649F259625AD25A425BB25B225CC8
:10308400616182809C4232878146014615B7BA87C6
:103094003687B286054629BF6F4070416F40D03FE6
:1030A4001386018D9387C1433386C74081451385B9
:1030B400018DDDB7370500209387018D13060500C8
:1030C400B795000841113386C7409385455E1305C3
:1030D400050006C6E137B24037050020B7070020D7
:1030E4001306050093870700B79500083386C74089
:1030F4009385455E1305050041014DB7411106C690
:10310400EFF0BFD273005010EFF05FD2A14773A06D
:103114000730B240410182803687B2862E868545CB
:103124006FF0AFCF130505068280011122CC26CAA9
:1031340052C406CE4AC84EC656C25AC000102A8A85
:10314400AE84F3292034D20993D94901B78A0008FF
:103154003789000813860A68854513058935EFF019
:103164006FC9C146B7970008414763E336014E87EC
:103174000A07938707F0BA970A8B797198430A86EE
:10318400B7970008938787BB5CCA93071030231056
:10319400F602B70700019107232C360158CE1CCA4A
:1031A4008965814641069385054413058935EFF009
:1031B4002FC85A81F3263034379600081306C6BC4C
:1031C400854513058935EFF00FC489E88149CE851B
:1031D4002685CD2EA6855285EF209028D440905088
:1031E400B7950008130589359385C5BD35379444D3
:1031F400D050B795000813058935938585BF293FBD
:10320400D4449054B795000813058935938545C176
:1032140021379448D054B795000813058935938510
:1032240005C3DD3DD4489058B7950008130589358A
:103234009385C5C4D535944CD058B795000813056B
:103244008935938585C6C93DD44C905CB7950008F3
:10325400938545C813058935C135D45C3796000874
:10326400130606CA854513058935EFF0CFB937969D
:10327400000893860406130606CB85451305893595
:10328400EFF06FB8944037960008130606CC8545D6
:1032940013058935EFF02FB7F4403796000813066D
:1032A40006CD854513058935EFF0EFB5B44437965F
:1032B4000008130606CE854513058935EFF0AFB433
:1032C400854513860A6813058935EFF0AFB283A9E3
:1032D4000405E38D09EE83A6090203A68900B795C8
:1032E400000813058935938505CF3D3583A649022A
:1032F40003A6C900B7950008130589359385C5D081
:10330400213D83A6890203A60901B7950008130588
:103314008935938585D2093583A6C90203A6490157
:10332400B795000813058935938545D4F53383A6ED
:10333400090303A68901B795000813058935938508
:1033440005D6EFF07FDD83A6490303A6C901B7952F
:1033540000089385C5D713058935EFF0FFDB854554
:1033640013860A6813058935EFF0CFA88DB541118E
:10337400AA85014506C6EFF05FDB411106C6F326B8
:10338400203437960008D206378500088545130592
:103394008535D182130646F4EFF0EFA68145054545
:1033A400EFF0BFD8411106C6EFF09FCFEFF09FD0EA
:1033B400EFE05FB5EF20B033130606FA419A1CD64E
:1033C4008967938707883CC6B72700089387079BBC
:1033D4007CC2B707000814D258D223260603232040
:1033E40006049387271910D95CD92322A508828063
:1033F4001305A0F78280011152C426CA4EC6930455
:10340400800093090000CE9422CC33849540B78584
:1034140000084AC8130600002A89938505382285C6
:1034240006CEEF4070073305340113068000814552
:10343400EF40F00723268908F24062444249B2492A
:10344400224A2685D2440561828093773500AA8674
:103454009DE783C7D500858B85C3373700208567F3
:103464001307070393870780BA97C19B014563E954
:10347400E60033B5F6008280F859BC5DF5B7014526
:10348400828039714AD84ED652D456D25AD006DEEA
:1034940022DC26DA5ECE62CC66CA6AC86EC6AA8907
:1034A4002E8AB28A36893A8BA9C23685EFF09FC735
:1034B400832449042A84370C0008B78C0008814B04
:1034C400814D130C4C23938CACCD214D4A86D6856B
:1034D4002285029B29C963F88D0463F9840304409F
:1034E40093074400A28D3E84D5B781CB1387C14195
:1034F4001847130707036398E700B73400080A84E2
:10350400938464484DBF8043C44375B7E3F994FD85
:103514002286A6855285829919C5850B0440930796
:103524004400E391ABFDF2506254D2544259B25973
:10353400225A925A025BF24B624CD24C424DB24D2B
:1035440021618280937635002A8785E681C583A729
:10355400C14199CFB7370020938707030145636BB7
:10356400F700856693860680B6973335F700828028
:10357400E9BD01458280411122C406C600081441F8
:103584007971938716001CC18A873797000813073F
:10359400C7F6D8CB15478CD394CFD0CF98CB8D65B5
:1035A4003785000813058535814613860701938501
:1035B4000584EFF0EF87130104FFB2402244054570
:1035C40041018280797106D622D42AC62EC402CE45
:1035D4003784000837960008130584351306C6F8A7
:1035E4008545EFF02F811386C141A247B2461046AC
:1035F4003737000837350008130787546C0813055C
:10360400A557EFF01FE83786000813058435130625
:1036140006688545EFE01FFEB25022544561828062
:10362400411106C6DC498C4D8297B24001454101E7
:103634008280797102C4894732872304F100B73745
:1036440000082ACC2ECE9387476248003686BA8576
:1036540006D602C202C802CA3EC6EF40A012B25049
:103664004561828083A70192411106C68297B240C8
:10367400014541018280411106C6ED37B240014542
:103684004101828023A0A192B707002093870700FD
:1036940003C74700136727002382E7008280B755DA
:1036A4000020938575B7E199378600204111138571
:1036B40001320D8E06C6EFD07F88B240014541012C
:1036C40082805C4118499C4323A407005C418346E3
:1036D40007009C43DC43D583BD8BA300F70063F450
:1036E400D7002300F7005C410347070094433D8B58
:1036F40006079C42859BD98F9CC285679386C71514
:10370400584118433E97232007009107E39AD7FEB8
:103714000145828013050540B70700D285070A05D5
:103724003E9585472300F500828083C88181938775
:10373400818103C817008547B3971701FD17A14678
:1037440093F7F70FB386064163F3F500AE8721477D
:1037540033071741B397E70033081841054733137C
:10376400D700331707017D177D131377F70FB3E7DE
:10377400670063F3E5002E873317D700D98F13054D
:103784000540370700D20A05930637000D8AAA962A
:1037940093F7F70F060609072380F6001366060C55
:1037A4003A952300C5008280011126CA4AC84EC634
:1037B40052C406CE22CC03440500AA84B7090140B2
:1037C400054A1389C13283C7140063FA8700F240A3
:1037D4006244D2444249B249224A05618280138735
:1037E40049411C43B3D78700858B81CFB3178A0027
:1037F4001CC393173400CA97984301C7CC4322854E
:10380400029705041374F40F7DBF411101468145ED
:10381400654506C6EFE0CFEE014681456945EFE018
:103824002FEE014681456D45EFE08FED0146814560
:103834007145EFE0EFEC014681457545EFE04FEC53
:10384400014681451305A002EFE08FEB1305B00399
:1038540001468145EFE0CFEAB24001454101828053
:10386400370701401307074014438547B397A70060
:10387400D58F1CC3B7970008938787FD3E950345F2
:1038840005006FE0AFE73707014013070740144313
:103894008547B397A70093C7F7FFF58F1CC38280B2
:1038A40085473395A70013F71500B70701409387A1
:1038B400874011CF9843498F98C3B7070140938736
:1038C400C7409843898989C9498F98C382809443A2
:1038D4001347F5FF758FCDB71345F5FF798D88C371
:1038E40082809386C13213173500BA969442938727
:1038F400C13281C6130580F889E5BA978CC3D0C359
:1039040001458280584183D605000145184393D769
:10391400660093F7F70FBA97904305473317D7001C
:10392400518F98C382805C4183D6050001459C4336
:1039340013D766001377F70F3E9710438547B39765
:10394400D70093C7F7FFF18F1CC382805C4183D5F6
:103954000500E1469C43D84393D7650093F7F70FDE
:103964006388D704F146638ED702D1461305A0F7C6
:103974006398D7021183B79700083D8B938707009C
:10398400BA9783C60700B7F76F0693870730B3D794
:10399400D74013050070814605481CC28DC20145FD
:1039A40082802183B78700081D8B9387C73AC9BFDC
:1039B4002D83B78700081D8B9387C73AD1B7E3904F
:1039C400A5FEE30E07FD86078546C1BF544103D714
:1039D4000500054594429357670093F7F70FB69790
:1039E4009C433315E5007D8D3335A00005058280A9
:1039F400411106C622C437850008130585E3EF206C
:103A04008021B55701CD374400081305A4A2EFF077
:103A14007FC71305A4A2EFD01FF78147B240224409
:103A24003E8541018280411122C426C24AC0B78426
:103A3400000806C6A9472A84138984E36319F5009C
:103A440083278900B545138584E3DC438297832764
:103A54008900138584E39375F40FDC438297B240A5
:103A6400228522449244024941018280411106C6C2
:103A740022C44041AE8751463E858145EF40202314
:103A840003576402AA87C1462310E5000357440282
:103A94002311E500034784020346B4060D8313474C
:103AA4001700058B134616006304C7009306000233
:103AB400D4C3D4C7B240224441018280AA870841BA
:103AC4002E88938547001C4536879C4381C7B28660
:103AD40042868287130580FA82801C459C4B91C3E1
:103AE40082878280411106C622C426C22A84F937FD
:103AF400AA84084093054400CD37B2402244268569
:103B040092444101828048418146014693059002D6
:103B1400D1BF48418146014693058002E1B739711E
:103B240022DC26DA4AD84ED656D25AD062CC06DEE9
:103B340052D45ECE66CA6AC8032A450003DD460035
:103B440083DB6600832C05012A8C2E8BB284368994
:103B540013069A0285469305A0035285BA89B93F94
:103B64002A84930A4A00634B050E83D70C0003256D
:103B74004C009146B305FB00C205C18113D78500F3
:103B840093978500EA95D98FFD1503DB2C0023124A
:103B9400F10093978500C205C181A181CD8F5000AA
:103BA4009305A0022313F100113F2A846348050AF8
:103BB400DA94C204C18013D7840093978400DE94FE
:103BC400D98FFD142312F10093978400C2040325B6
:103BD4004C00C180A180C58F914650009305B0026E
:103BE4002313F100EFF09FED2A8463490506835700
:103BF400890003574900835B69006375F7088607EA
:103C040085462315D1003EC22314E1002316E100AA
:103C140083478A020346BA06414B8D8393C7170034
:103C2400858B134616006384C700130B0002B3860A
:103C3400E60203254C004E869305C0028606EFF08B
:103C4400FFE72A84634C050083578900854486076F
:103C5400BE9903250A0063ED7403014403250A0099
:103C6400D685EFF09FE7F25022856254D254425930
:103C7400B259225A925A025BF24B624CD24C424DD8
:103C840021618280B387EB02DE86854B860795BF70
:103C94001C459C478DC35A8754004E86D68582970F
:103CA4002A84E34D05FA835789008504C2048607F4
:103CB400BE99C18079BF130480FA4DB7411106C67D
:103CC40037960008378500081305053213060601E8
:103CD4008545EFE03F92B2401305A0F74101828091
:103CE40091C1E9BF01458280411106C6379600089B
:103CF4003785000813050532130606048545EFE0F1
:103D04007F8FB2401305A0F74101828041475C4197
:103D14006398E50083C78702A18B99EB01458280F4
:103D2400130700026396E50083C78702A18BFDF7A2
:103D340065BF011122CC4AC806CE26CA4EC6001061
:103D440044412A898840EF10106D39E99C408A84E7
:103D5400011198430A86B7970008938747065CCAFF
:103D640093070020231EF600B70700018D0718CE25
:103D74001CCA89653785000881464106938505C4B8
:103D840013050532EFE0DF8A2681B554130104FEE2
:103D9400F24026856244D2444249B2490561828098
:103DA4008327490088431C45DC478DCBA945014640
:103DB40082970DE581451305004BEF20B06703257D
:103DC400490081460146C545EFF0DFD1AA84635D11
:103DD4000502379600081306460939A80325490049
:103DE400814601468545EFF0FFCFAA84E35405FCE4
:103DF400379600081306C60737850008854513055E
:103E04000532EFE02FFF59B781451305004BEF2032
:103E14007062832949008D469305100B1386E903CC
:103E24004E85EFF03FCCAA8463570500379600080F
:103E34001306860AD1B7032549008D461386190453
:103E44009305200BEFF01FCAAA84E34105FE032566
:103E540049009946138649049305300BEFF09FC837
:103E6400AA84E34505FC03254900854613863903E6
:103E74009305400BEFF01FC7AA84E34905FA032515
:103E840049008D46138649039305000CEFF09FC546
:103E9400AA84E34D05F80325490085461386790372
:103EA4009305100CEFF01FC4AA84E34105F8032521
:103EB40049008946138689039305200CEFF09FC2BD
:103EC400AA84E34505F60325490089461386A90318
:103ED4009305300CEFF01FC1AA84E34905F40325D0
:103EE400490089461386C9039305400CEFF09FBF30
:103EF400AA84E34D05F20325490085461386290368
:103F04009305500CEFF01FBEAA84E34105F283C76A
:103F1400A90603254900814601469305100299E349
:103F240093050002EFF01FBCAA84E34105F00325CA
:103F3400490085461386890293056003EFF09FBA12
:103F4400AA84E34505EE03254900854613869902B4
:103F54009305A003EFF01FB9AA84E34905EC0325F8
:103F6400490091461386A9029305A002EFF09FB77A
:103F7400AA84E34D05EA0325490091461386E90224
:103F84009305B002EFF01FB6AA84E34105EA0325C6
:103F94004900C1461386A9049305000EEFF09FB4AF
:103FA400AA84E34505E803254900C1461386A9050B
:103FB4009305100EEFF01FB3AA84E34905E6032529
:103FC400490081460146CD45EFF0DFB1AA84E34FB5
:103FD40005E4032549008146014693059002EFF06C
:103FE4007FB0AA84E34405E481444DB35C41854633
:103FF400B396B600D8439D473A8863F7B700E115F6
:104004001308470093F5F50F032508008A05BD47FB
:10401400B397B70093C7F7FFE98F37050200718D97
:104024001DCD1375260005C5937846001305A0F72A
:10403400638E08001945B315B500CD8FB705080088
:10404400F18D81C914CB2320F800014582800945F4
:10405400DDB7B70504006D8E7DD654CBEDB7416551
:10406400718D75D11375060111C521463316B6003D
:10407400D18FC9BF1376060211C621463316B60086
:10408400D18FE1BF11473317B700D98F6DBF5C41A2
:104094000145DC439C479CC182805C410145DC4373
:1040A400D847398E6D8E398ED0C782805C410145E8
:1040B400DC438CCB82805C410145DC43CCCB8280E9
:1040C4005C410145D8435C47AD8F5CC782801C4985
:1040D400D84321C3631CB70298419447D8C3639360
:1040E400D50098C723A0050019C6D84398C198479E
:1040F400CCC311E38CC7014582806399E5009841E4
:1041040098C29847E390E5FE94C7E9BFBA8618437E
:104114006DF761FE29558280AA85378500089307CB
:1041240045D79C479C4381C7130545D78287828026
:10413400411122C406C626C24AC0B70720002E84F5
:104144006315F6022E85EFF00FF4814501462285B2
:10415400EFF02FF981452285EFF08FF40145B2404D
:1041640022449244024941018280B707400163110D
:10417400F608B74500082A892A869385E520228512
:10418400B684EFF00FF6E34C05FC135724008D477B
:10419400832649002955E3E4E7FCB7070140A1075A
:1041A4000A073E97DC42B706FFBF93860680B697A0
:1041B400937634000C438A063D463316D6001346E4
:1041C400F6FF6D8E10C31043A98393F7F70FB397CF
:1041D400D700D18F1CC3B7070004638EF400B70760
:1041E40000066382F402B707000289456386F4007F
:1041F4001305A0F7ADB785452285EFF06FEA228558
:10420400EFF00FE6A1BF8D45C5BF411126C206C61A
:1042140022C44AC09C49AE84CC4391C5804105491F
:104224003319A90099E5B24022449244024941015C
:10423400828090453376C90001C6DC412685829789
:10424400814711C01C40A2853E84E9BF411106C6C6
:1042540022C4404113058400EFF01FEC1305A400B1
:10426400EFF09FEB48440C481C45DC4791C3829710
:10427400B24022440145410182806F20E00B1C4979
:10428400544198571DCF7D1798D711E79042584253
:104294001377F7BF58C2D05758427D1758C2984277
:1042A400D457944283C6060014CBD45798420507CA
:1042B40098C2985705C3D857544389EE3107D8D7C5
:1042C400828094421385070198421367072098C29D
:1042D4006FF0BFFA828054411C499042584A93754A
:1042E400071099C94C4A93F5F5EF4CCA03C6070366
:1042F400136616002388C7021376072001CE8C426A
:10430400D0491376F6DFD0C903C607031366260027
:104314002388C702137707400DC79042584A137782
:10432400F7BF58CA03C70703136747002388E70288
:1043340094421385070198421367072098C26FF0CF
:10434400DFF303C707036DF78280411101468145FE
:104354001305200306C6EFD0BFBA13052003EFD020
:10436400FFB91305300301468145EFD07FB9B24050
:104374001305300341016FD07FB858555C43FD17D6
:104384005CC39C41984B5C559C432380E700585583
:104394001C4385071CC31C5591C75C55D84319E3BE
:1043A400B1075CD58280AA870849CC4305471C55D0
:1043B400638FE700637AF7009386E7FF6375D7029C
:1043C400FD171CD56FF07FFB41056FF01FEB01114A
:1043D40006CE232405022AC6EFF03FFA3245F24006
:1043E40041050561DDB798415C4393F7F7BF5CC3B2
:1043F4008280011106CE22CC4C4100499C41D84B0D
:104404001376170005C254540357440283C686002A
:104414000607858A99C21367170098CBF240624455
:10442400056182801376870001C603576402F5B7DD
:104434001376270035C6585403478700058B09CBEC
:10444400145409476366D70098431377F7BF98C39A
:104454009C4183461403D84B984F58548DC6A308E7
:10446400040283478700F99B2304F70058548347C9
:10447400870093E717002304F70098411C4393E750
:1044840007101CC361BF03478700058B41DB14542D
:104494000547E395E6F898431367072098C3BDBF23
:1044A40013764700AA8625CA585403478700058B0C
:1044B40035CB18548946630AD7008D466300D70468
:1044C4006244F24005616FF01FEE984322852EC6C8
:1044D4001367072098C31C54FD171CD4EFF0FFE9A1
:1044E4001C54B2452285FD171CD4EFF01FE91305B7
:1044F40004016244F24005616FF03FD8984322857D
:104504001377F7BF98C31C54FD171CD46244F240C0
:1045140005616FF09FE693770704DDF313770708CF
:10452400E30E07EE6244F240368505616FF03FD535
:10453400011106CE22CC26CA4AC8444100499C40F7
:104544009C4F898B99CBC1472308F4024155F24013
:104554006244D2444249056182802A8913050401D8
:104564002AC6EF10506723180402984032451C43B2
:1045740093E707401CC35C5483C78700858B85CBB6
:10458400185489476319F700944005671307078097
:104594009C42D98F9CC21C50858B91CB5854854723
:1045A400A308F40283478700F99B2304F70098408B
:1045B4005C4393E707105CC398405C4393E7072090
:1045C4005CC398405C4393E707405CC398401C433A
:1045D40093E707101CC37D56FD55EF10B05C83278D
:1045E4004900032609019443D8421377F7EFD8C250
:1045F4009443D8421377F7DFD8C29443D842137751
:10460400F7BFD8C2984361071C43898BF5FF8347E2
:1046140006036D558DFF01451DBF797122D44ECE21
:1046240052CC56CA06D626D24AD05AC85EC683C7CA
:1046340085000449032B450093E747002384F500D4
:104644002A8AAE8AB28936842E87854763F8F910A0
:10465400FD557D562685EF10F05403270B001C43AF
:1046640093E717001CC39C50858B638007129357F4
:1046740084008D8B93E7070F1374F40F2392F402D5
:104684002393840201490144B14B6375390BB30789
:10469400790305091379F90FD697DCD4CC433E8608
:1046A4008CD483C687006317390F858A528563804B
:1046B4000610EFF0FFE72A84E35905FC83C70403DF
:1046C400858B81CF37960008378500081306061BB3
:1046D400854513050533EFD0FFF183C70403898BA8
:1046E40081CF37960008378500081306C61B854519
:1046F40013050533EFD01FF083C70403918B81CFDB
:1047040037960008378500081306061D85451305EE
:104714000533EFD03FEE83C70403C18B81CF3796B7
:104724000008378500081306061E85451305053362
:10473400EFD05FEC03270B0026851C43F99B1CC3B9
:10474400EFF0BFB3B2502285225492540259F24979
:10475400624AD24A424BB24B4561828063FE3701C2
:104764008346870003464701B3C5C600858999C1BE
:10477400118A29C2898A9DEE14438DCE54439DCA61
:104784008507310793F7F70FD1B51374F407239214
:104794008402CDBD034746013106358F058BE316F0
:1047A40007F0584205091379F90FBA95D5BDEFF012
:1047B4003FD811B7295479B7797126D206D622D4B5
:1047C4004AD04ECE032905014041AE84FD557D56A5
:1047D4004A85EF10303D1840378500081C43F99B8B
:1047E4001CC3930745D79C47DC4799C793058400AE
:1047F4007000130545D78297B24737470F00B74675
:104804004703130707249386F6BB33D7E70263FCF9
:10481400F60237960008930660031306061F3785D1
:104824000008854513050533EFD03FDF9309A0F752
:104834004A85EFF09FA4B2502254925402594E85F7
:10484400F2494561828093D614009D8A09466380AB
:10485400C6080D46638AC60E0546A959E39AC6FCE6
:10486400B7861E009386F64763E8F600379600087D
:1048740089461306862165B71440DC4293F707FC8A
:10488400DCC21440DC42D98FDCC2930660031C40B6
:10489400631DD70298D33247B7170300938707D411
:1048A4003357F70214407D76DC4EF18FDCCE144092
:1048B400DC4ED98FDCCE144061777D17DC4EF98F46
:1048C400DCCE232099028149A5B70507E1B7B716C5
:1048D4007A009386F61F63E8F60037960008A1462F
:1048E4001306C6242DBF9307C012B307F70213079C
:1048F400803E1440B3D7E70285079CD23247B7976E
:1049040098001386F76785466376E6009387076801
:10491400B356F702184011665C4FD18F5CCF184034
:104924007D765C4FF18F5CCF18405C4FD58F5CCFA8
:104934001840A1665C4FD58F5CCF1C409387070954
:104944009843799B98C3B5BFB7366E019386F65FDB
:1049540063E8F60037960008E1461306C627C1B59A
:10496400930680073307D7029306803E1C403357D3
:10497400D702050798D3B24637877D011306F7831C
:1049840085476376D60013070784B3D7E60214403D
:104994001166D84E518FD8CE14407D76D84E718F83
:1049A400D8CE1840544FD58F5CCF1840A1665C4FC9
:1049B400D58F5CCF1C409387070998431367170072
:1049C40051B7011126CA06CE22CC4AC84041032958
:1049D4000501AA844848700081457D28634805087C
:1049E400B247014683C54700884321226340050836
:1049F400054685454A85EF10B01281457D5613055D
:104A04000901EF10F01137850008930745D79C473B
:104A1400930584009C4381C7130545D78297484476
:104A24000C481C45DC4791C382971C4C82975C4020
:104A340037470F001307072499456383E702636D23
:104A4400F70261671307076A8945638BE70037E755
:104A5400F9FF13070758BA9793B7170093952700E0
:104A640093E505012685EFF03FD50145F240624408
:104A7400D24442490561828037E7330013070714A3
:104A8400A145E38FE7FC37574C00130707B4A9454A
:104A9400E388E7FC8145E9B71C411CC28346450015
:104AA40018418E06369763E4E7007955828003C780
:104AB40057006304B700A107CDB701458280AA85DA
:104AC40037850008930745D79C479C4381C7130546
:104AD40045D78287828001111305E10093070060A6
:104AE40006CE2317F100EFF09FFDF240014505616A
:104AF4008280638205161D71A6CA86CEA2CCCAC85E
:104B0400CEC6D2C4D6C2DAC05EDE62DC66DA6AD849
:104B14006ED61C41AA84A9831397070193F7F73F24
:104B240041839DC7058BB70601406DE7910613D6F7
:104B3400170013D7670088427D8A0D8B3317C7008F
:104B44001347F7FFA183698FB397C700D98F9CC21E
:104B54008A05379B0008B79B0008B389B400130B80
:104B6400CB2E938B8B2F3D4D894C054C914D804022
:104B74009377F400139717005A97035707008A078F
:104B8400DE9703AA07009357440013F9F700935ADA
:104B94008400231FE100A18B93FA3A00B5EF5288F9
:104BA4004A871305E1013AC642C4EFF05FF1224897
:104BB40032478D45832608000A07B317ED0093C7D3
:104BC400F7FFF58F63919A079356A4018D8A638347
:104BD400B600850637050010618D13E6C60019E19D
:104BE40013E686003316E600D18F2320F8009104E3
:104BF400E39F99F6F6406644D6444649B649264AA8
:104C0400964A064BF25B625CD25C425DB25D014542
:104C140025618280F10621BF130789FF13084A002A
:104C24001377F70FBDBFE3928AFD75800D8809E401
:104C34003397ED00D98F55BF33192C0163189401B4
:104C4400232A2A01A1463397E600EDB7E31C84FF2B
:104C540023282A01C5BF29558280584193D765006E
:104C640093F7F70F18430145BA9798438547B397CD
:104C7400B700F98FB337F0002300F6008280584163
:104C840093D7650093F7F70F18430145BA979443F8
:104C94000547B315B700D58D8CC382805C4113D70B
:104CA40065001377F70F9C4301453E9714438547EE
:104CB400B397B70093C7F7FFF58F1CC382804111E8
:104CC40006C622C426C22A84AE84EFF05FFBA68502
:104CD4002285EFF0BFFCB2402244924401454101D9
:104CE400828018495C4399C30C47828782800545BA
:104CF40082801C49CCC390C78280011122CC26CA71
:104D04004AC806CE4EC683294500AE843289014482
:104D1400B30789406358F00003A509009D45EF00DF
:104D2400905E09E9F24022856244D2444249B24984
:104D340005618280B387840083C5070003A5090049
:104D44000504EF00505BE9B75C41994588436F0067
:104D5400905B5C41954588436F00F05A411106C64B
:104D640022C440410840EF00105908409D45EF001F
:104D7400905965DDB240224441018280011122CC68
:104D840026CA4AC806CE4EC683294500AE84328957
:104D94000144B30789406358F00003A50900954511
:104DA400EF00705609E9F24022856244D244424938
:104DB400B2490561828003A50900EF005054B3870E
:104DC40084002380A7000504E9B7411122C406C664
:104DD40026C244412E8495458840EF00D05201CD2F
:104DE4008840EF00D0512300A4000145B240224482
:104DF4009244410182807D55D5BF5C41930560306A
:104E040088436F00B0535C419305503088436F0072
:104E1400F052411106C622C4404193050050084097
:104E2400EF00D05108402244B24093058030410144
:104E34006F00D0505C419305603088436F009051FF
:104E44005C419305503088436F00D050411106C631
:104E540022C44041930500500840EF00B04F084081
:104E64002244B2409305803041016F00B04E41119D
:104E740006C622C440419D450840EF00D04811CDEC
:104E84000840B705060093856530EF00704E333552
:104E9400A000B2402244410182800145DDBF41119E
:104EA40006C622C4404195450840EF00D04511E9AB
:104EB40008409945EF00304505E1B24022444101E4
:104EC40082800840B705050093855530EF00504AAD
:104ED400AA870545FDF3E9BF0840B7050600938599
:104EE4006530EF00F0483335A000C1BF411122C442
:104EF40006C626C24AC00329450001440325090009
:104F0400044193F7340089C78D45EF00704105448F
:104F1400858881C803250900854513644400EF0092
:104F24003040032509008945EF00903FB2402285B7
:104F340022449244024941018280411113058003B5
:104F44000146814506C6EFC0BFFBB240130580038E
:104F540041016FC0BFFA797126D206D622D44AD055
:104F64004ECE52CC404103290501AA840848700062
:104F74008145EFF07FB26343050AB247014683C51A
:104F840047008843EFF0FFB6634A05085C480947C9
:104F94001305A0F76364F708B78600081397170092
:104FA4009387863DBA9783D90700B787000893870C
:104FB400073DBA973785000803DA0700930745D7FA
:104FC4009C47930544009C4381C7130545D78297AA
:104FD40008444C441C45DC4791C38297832509004F
:104FE4000840EF00F0250840D285EF00B02B0840C0
:104FF400CE85EF00302C08408145EF00D02C0840CE
:105004009145EF00B02E0840A145EF00902D0840D7
:10501400EF00902C1C4C268582970145B2502254F7
:1050240092540259F249624A456182809C4189E75F
:1050340023200600014582801C41D8436368D700C1
:105044003357D70218C21C4188438280A1071CC170
:105054009C41FD179CC1D9BFAA8783C6470008415C
:1050640085472E87B395D7001C499C43ED8F99C380
:105074001347170001C71C45DC4782871C459C4B1E
:10508400EDBF39714AD84ED656D25AD006DE22DC4C
:1050940026DA52D45ECE83D7450009670449F98FD6
:1050A400032A4500AA892E89328BB68ABDEBFD55A9
:1050B4007D5613850401EF10E02E23A2240183AB57
:1050C400090183A70B006307F9148357490003A45C
:1050D4004900858BA9CF3796000837850008130649
:1050E400C634854513050536EFD0CFD01304A0F799
:1050F4009C4091C783D747000967F98F99E723A29A
:10510400040013850401EF102023F2502285625419
:10511400D2544259B259225A925A025BF24B21613B
:1051240082809C4CC9F7DC40E393F5F849BF1840F2
:105134001C4393F7F7FB1CC318401C4393E7471029
:105144001CC3144051777D179C42F98F9CC283572E
:105154004900A1461840958393F7F7036395D72434
:105164001C431CC318401C4393F7F7DF1CC30347BD
:1051740049011C40630F072298431367072098C313
:1051840018401C4393F7F7F71CC383574900C18B9E
:1051940091C718401C4393E707081CC318401C43DD
:1051A400F59B1CC383574900898B91C718401C4346
:1051B40093E727001CC318401C43F99B1CC3835767
:1051C4004900918B91C718401C4393E717001CC3F7
:1051D40037850008930745D79C4793054400DC476F
:1051E40089C77000130545D7829732470326090003
:1051F4008147A14605836363E61C3AC614408E07C3
:105204009842137777FC98C218401443D58F1CC377
:1052140023A02B0103270A001C4393E707041CC3A4
:1052240063140B1A23AA040281479CDC8546138667
:1052340084049385840313854403EFF03FDFE8C0BF
:10524400639C0A1823AE04028147BCC085461386BA
:105254000405938504041385C403EFF03FDDE8C41B
:10526400884023A8040201CD8347450189CB8545A5
:105274002105EFF07FDE9C40884BEF005012A14ADD
:1052840003A9490003A409018326090013878600A2
:105294001C43898BF5DF1C40784083D747009583F6
:1052A40093F7F70363985715814709C7304419C228
:1052B40083470700DCC63C448DC7FD173CC4639597
:1052C40007125C588546A1075CD81C5CFD171CDCE2
:1052D400130684049305840313054403EFF01FD5D8
:1052E40068C083260900138786001C43858BF5DF7D
:1052F40018407C4430480357470015831377F7035D
:1053040063195713D84681C719C22380E7003C4864
:105314008DC7FD173CC8639907105C5C8546A107DF
:105324005CDC3C40FD173CC01306040593050404F3
:105334001305C403EFF09FCF68C483260900984681
:1053440013770707630507123796000837850008A7
:1053540013068636854513050536EFD00FAC6D541C
:1053640083270A00A1079843098B75DF98431377B5
:10537400070875FB9C408DC303C7470111CF03D7B2
:1053840047008566758F09EB884BEF005001884014
:1053940081452105EFF05FCC03270A001C4393F7F6
:1053A400F7FB1CC3B1B31C43856693860680D58F77
:1053B4004DBBD84313674700D8C3D9B3850793F7C8
:1053C400F70FE399D7E2A9B583270B00DCD8E38D67
:1053D40007E483274B0091BD83A70A00DCDCE38547
:1053E40007E683A74A0095B57C40E38C07EE850762
:1053F4007CC0C5BD814709C7304419C28347070033
:10540400DCC63C44E38F07ECFD173CC489EB5C58D5
:105414008946A1075CD81C5CFD171CDC55BD7C408B
:10542400E38107EC8907E9B77C4481DB85077CC409
:1054340029B7D44691CB09CA139706014183218326
:105444002380D700A380E7003C48E38807EEFD17DC
:105454003CC889EB5C5C8946A1075CDC3C40FD17D9
:105464003CC0D9B57C44E38A07EC8907C9B7BC447E
:10547400E39807E0BC48E39507E00144D5B5411142
:1054840022C406C61C412A8499CB03C7470101CB19
:10549400884B3127084081452105EFF0FFBB1C4CA8
:1054A40091EB23220400130504012244B24041017C
:1054B4006F009068B240224441018280411106C6C7
:1054C4000849EFF0DFFBB240014541018280797168
:1054D40022D406D626D24AD04ECE52CC56CA5AC868
:1054E400001803290501444137850008930745D76F
:1054F4009C479C4391C793854400130545D78297E5
:105504008844CC441C45DC4791C3829788481306E1
:10551400C4FD8145EFF04FD8AA84634C050083276E
:10552400C4FD014683C547008843EFF08FDCAA849D
:105534000DC937960008378500081305053613068C
:1055440006398545EFD00F8B2685130104FDB25033
:10555400225492540259F249624AD24A424B45615A
:10556400828083248900B709F0FF370A1A00B70A3A
:105574001600FD19054B0327C900832789000E0770
:10558400BA9763E7F4004A85EFF07FEF014575BFF2
:105594008840512529E59C4003C744008A847971D9
:1055A40094430A86B79700089387073B5CCA93071E
:1055B40000202310F602B7070001910714CE58CE3D
:1055C4001CCA8965378500081305053681464106DE
:1055D40093850544EFD0CF8535552681BDB78840E6
:1055E40083C5440083D7640093F61700832885009D
:1055F4000328050133C7470199E233E7570133769E
:105604003701058B83270800B316BB0019CBD58F50
:105614002320F80083A708008297E34805F2A10439
:1056240099BF93C6F6FFF58FE5B7B70700D1D84306
:105634008843CC43E39DE5FE8280411101468145C8
:105644001D4506C6EFC0DF8BEFF03FFE056613066F
:10565400C6A88146EFA05FC523ACA18C23AEB18C54
:1056640085679387C7A83387A7023335F50223A03C
:10567400E18EB385B702BA9733B7E700AA9523A2A0
:10568400B18EB306B700732740F13706201A05061A
:1056940032970E077D5650C31CC31D4554C3EFC03B
:1056A400FF85B240014541018280411106C622C4F2
:1056B40073740430EFF07FF703A7018E8567938737
:1056C400C7A8198D3355F50203A6418E2188B30767
:1056D400F5023E97B337F700B29723A0E18E23A2D9
:1056E400F18E83A7818D03A6C18DB386A700B3B7BE
:1056F400F600B29723AEF18C23ACD18C23A2019295
:10570400732004302244B24041016F107024737638
:105714000430FD57631BF50283A7018E03A7418E56
:10572400370500C03E95B337F500BA97732740F1AB
:10573400B706201A850636970E07FD5654C308C3CC
:105744005CC3218A73200630828003A7419283A719
:10575400818D83A6C18D1358F541BA9733B7E700FD
:105764003E95BA963337F500B3870601856693866E
:10577400C6A83E973307D702B337D5023305D502FF
:10578400BA9703A7018E83A6418EB388D740B30589
:10579400E5403338B50063960801370800C0E37765
:1057A400B8F8370500C03A953337E500B307D7009A
:1057B400B5BF411106C622C473740430EFF0FFE68E
:1057C40083A7018E21881D8D85679387C7A83355CC
:1057D400F50223A2A19273200430B2402244410175
:1057E4008280411106C6EFF05FE4B240410182803D
:1057F400B71702409843B706FFE0B10613671700D6
:1058040098C3D84337060200758FD8C39843B706A8
:10581400F7FEFD16758F98C39843B706FCFFFD1677
:10582400758F98C3D843B70601DFFD16758FD8C3AB
:1058340023A607029843B706F7EAFD16758F98C3A7
:105844003707FF0098C794434167D98E94C39307E1
:10585400F7FFB71602409842718F19E3FD17E5FF71
:10586400B71702409843B7060200758F11E301A0F1
:10587400D843B706C4DFFD16D8C3D843D8C3D8432A
:1058840013670740D8C3D843758FD8C3D843B70626
:105894002920558FD8C3D857BD76758FD8D7D857F8
:1058A400C166938616F1558FD8D79843B70600047E
:1058B400558F98C3B7060008B71702409843758FF1
:1058C40075DF9843B7060010558F98C3B7060020BC
:1058D400B71702409843758F75DF9843B7060001E8
:1058E400558F98C3B7060002B71702409843758FC7
:1058F40075DFD843719BD8C3D84313672700D8C337
:10590400371702405C43A18BF5DF82807971B7853C
:10591400000822D441462A8493858542080806D685
:10592400EF208037B7070304938717203EC23EC693
:1059340002C002C4B7170240D843894609830D8BBD
:105944006311D70ED843C166758F35C3D857758F89
:1059540031CBD857DC57C5461183A183BD8B3D8B12
:10596400890705076393D700D14737157A001305D4
:1059740005203355E5023305F502B7170240DC571D
:10598400BD8B85073355F502371702405C435843F6
:10599400B7060020C983758FBD8B19CF93E7070124
:1059A40085070DA037157A0013050520F9B73715BB
:1059B4003D0013050590C9BF3D47E383E7FE890712
:1059C400638BE7043385A702B7160240DC42918358
:1059D400BD8B938707028A9703C707FFDC423357BF
:1059E400E500A1839D8B938707028A9703C607FE70
:1059F400DC42AD839D8B938707028A9783C687FE1B
:105A04008947630CF40263E3870211C03A85B250FC
:105A14002254456182809947B307F50205813E957A
:105A240065B7B7177A001385072079BF8D473355BB
:105A3400D700E30EF4FC0145D9BF3355C700C1BFFD
:105A44004111B757004022C426C206C6138707C0B7
:105A54002A84AE84630DE500636DA700B7C7FFBF5A
:105A6400938707C0AA9793F7F7BF014599EF0945B4
:105A740019A8E30EF5FEB747014093870780014557
:105A84006315F4000D45EFF07FE893D51400AA9553
:105A9400B3D59502C205C1810CC4B24022449244DC
:105AA400410182805C4593F7F79F5CC55C45CD8FCF
:105AB4005CC582805C457D777D17F98F5CC55C454C
:105AC400CD8F5CC582801C4975777D17F98F1CC901
:105AD4001C49CD8F1CC982805C450967D98F5CC580
:105AE40082805C45DD9BCD8F5CC582805C45ED9BEF
:105AF400CD8F5CC5828093F5F51F4CC182804841EF
