:020000040800F2
:1000000073700430170500001305C5FF8545F6051C
:10001000637BB50089816378B5001705000013057F
:10002000C5002E9502859302002073A0027D73E027
:10003000023209A0970100189381C17E9702000047
:1000400093824204938232007390523011A00000D8
:06005000EF101017000084
:100080001D7116C21AC41EC672C876CA7ACC7ECE3C
:100090002AD02ED232D436D63AD83EDA42DC46DEE8
:1000A00006C0A2C61384C1D5F322203496C0F32221
:1000B000103496C2F32300309EC4C808EF008012AB
:1000C000F322203493D2F20163940208F322203405
:1000D0008563FD13B3F272002D43638862020A85C3
:1000E00039718322C50416C426C64AC84ECA52CCEA
:1000F00056CE5AD05ED262D466D66AD86EDA23283B
:100100002504EF20601C216141A89642910296C20D
:100110009242638A02000943639562000255925538
:1001200085A80D4511A002558A85397183A2C504A1
:1001300016C426C64AC84ECA52CC56CE5AD05ED233
:1001400062D466D66AD86EDA23A825046F20C00070
:100150000323040093031300232074006317030098
:100160008A8203214400411116C0592883230400C8
:10017000FD13232074006391030202410C444111DA
:100180002EC013050000EF40A0578245410109C56C
:10019000EF10D0051384C1D5C808EF00E0049642E3
:1001A000A6430643731023347390123473900330C4
:1001B000364492422243B243424ED24E624FF24FF5
:1001C000025592552256B2564257D2576258F258AB
:1001D0008240256173002030000000000000000014
:1001E00000000000828000001305C5FA8322050488
:1001F00037030080B3E262002320550482800000B0
:10020000411106C07375543405C5F32270303305AF
:100210005540975200009382E2420605AA9203A538
:10022000020003A34200E70003007375543471FD1C
:06023000824041018280C2
:10023800C1676376F5029337051093C717008E07D9
:1002480037670008930600029D8E3355F500930723
:1002580047A5AA9703C507003385A64082803707BC
:100268000001C147E36EE5FCE147D9BFAA882E83A8
:1002780032872A88AE8763960620B765000893857B
:1002880045A56371C30CC1666377D60A9336061019
:1002980093C616008E063355D600AA9583C5050069
:1002A80013050002AE96B305D540630BD500B3170E
:1002B800B300B3D6D8003317B600D58F3398B8003B
:1002C8009355070133D3B702131607014182B3F7D9
:1002D800B7021A85B3086602939607019357080177
:1002E800D58F63FC1701BA971305F3FF63E7E7009F
:1002F80063F517011305E3FFBA97B3871741B3D81E
:10030800B702420813580801B3F7B702B306160339
:10031800C2073368F800C687637BD8003A9893878A
:10032800F8FF6366E8006374D8009387E8FF420526
:100338005D8D8145828037050001C146E36DA6F4D5
:10034800E14691BF814609CAC167637FF6089336C3
:10035800061093C616008E06B357D600BE9583C7FF
:100368000500B69793060002B385F6406395F60834
:10037800B307C34085459358070133DE17031316A7
:100388000701418293560801B3F7170372853303B7
:10039800C603C207D58F63FC6700BA971305FEFF33
:1003A80063E7E70063F567001305EEFFBA97B387C5
:1003B800674033D31703420813580801B3F71703EC
:1003C800B3066602C2073368F8009A87637BD800D1
:1003D8003A989307F3FF6366E8006374D8009307BD
:1003E800E3FF42055D8D8280B7070001C146E365E2
:1003F800F6F6E14695B73317B600B356F300135532
:1004080007013313B300B3D7F800B3E7670033D35A
:10041800A6021316070141823398B800B3F6A60264
:10042800B30866029395060193D60701CD8E9A8587
:1004380063FC1601BA969305F3FF63E7E60063F5DC
:1004480016019305E3FFBA96B3861641B3D8A60200
:10045800C207C183B3F6A60233061603C206D58FB8
:10046800C68663FCC700BA979386F8FF63E7E70080
:1004780063F5C7009386E8FFBA97C205918FD58DBB
:10048800DDBD63E1D514C16763FFF60213B706103B
:10049800134717000E07B7670008B3D5E600938720
:1004A80047A5AE9783C70700BA9713070002B3059D
:1004B800F7406311F7020545E3EE66E633B5C80079
:1004C800134515008280B70700014147E3E5F6FCB4
:1004D8006147D1B73357F600B396B600D98E335774
:1004E800F3003313B300B3D7F800B3E7670013D3AF
:1004F8000601B35E67021398060113580801331604
:10050800B60033776702330ED8031315070113D7E4
:100518000701498F7685637CC70136971385FEFFEF
:100528006367D7006375C7011385EEFF36973307F6
:10053800C741335E6702C207C18333776702330856
:10054800C8034207D98F728763FC0701B697130760
:10055800FEFF63E7D70063F507011307EEFFB697C1
:100568004205416E598D9306FEFF3377D500B38758
:100578000741F18E1358050141823303D702B306B0
:10058800D8023307C7023308C8023306D700135707
:10059800030132976373D700729893560701C29686
:1005A80063E0D702E397D7D8C167FD177D8F42076D
:1005B8003373F300B398B8001A978145E3FCE8D683
:1005C8007D1585BB814501458280370710007D1761
:1005D8000111B377B70093D84601758F22CC26CA8C
:1005E80013D4450193D4F501939537009357D5015A
:1005F8001374F47FCD8F93F8F87F9315370006CEE8
:100608001357D6014AC84EC6FD824D8F0E050E06F9
:10061800B30514416398D4266352B012639E08064A
:10062800B366C700638906589386F5FFB9EE2A9624
:10063800B336A6003E97B307D700370780007D8FF3
:1006480032856313072205441377750001CF1377AA
:10065800F50091466308D70013074500B336A70095
:10066800B6973A85B7058000FD8D638F055405045C
:100678001307F07F6304E408370780FF7D17F98FBD
:100688000D819395D701C98DD5A91308F07F63997A
:1006980005071304F07F4DBF9306F07FE306D4FAF5
:1006A8009306800363C2B606B7068000558FAE86F0
:1006B800FD4563CED504130800023308D840B3586B
:1006C800D600B315070133180601B3E51501333811
:1006D800000133E60501B356D7003295BE9633368E
:1006E800C500B387C600370780007D8F31DF05045A
:1006F8001307F07F631BE4161304F07F814791A270
:1007080093058003E3D6D5FA81460546F9B7938564
:1007180006FE93080002B355B70001486388160126
:10072800130800043308D840331807013368C80099
:100738003338000133E60501814645B7DDC9B38585
:10074800884005E0B3E6A700638506469386F5FF73
:10075800E38F06EC1308F07F639F0505BA8732859F
:100768000DBF9306F07FE38BD8FE9306800363C822
:10077800B604B7068000D58FAE86FD4563C4D504A0
:10078800130800023308D840B39507013353D50046
:1007980033180501B3E5650033380001B3E50501F9
:1007A800B3D6D7002E96BA96B335B6003285B3873E
:1007B800B60046840DBF93058003E3D0D5FC81467F
:1007C8008545CDB7938506FE13030002B3D5B70060
:1007D800014863886600130800043308D84033983A
:1007E80007013368A80033380001B3E505018146E5
:1007F80055BF9306140093F5E67FB1E5B3E6A7006D
:1008080005E8638C063AB366C700E38F06E22A96CA
:10081800B336A6003E97B307D700370780007D8F11
:100828003285E30307E2370780FF7D17F98F21BD83
:1008380095D6598EE30F06E481441304F07FB70779
:10084800080081452DAE9305F07FE387B6EA2A9626
:100858003335A6003E972A971315F7010582518D67
:10086800935717003684CDB30944370780FF7D17A7
:10087800F98F135715000589498F1395F701598D7D
:100888008583D9B3635DB00C639F0802B366C70064
:10089800638306329386F5FF81EE3306C540B3368F
:1008A800C5003387E7403285B307D7400544B5A074
:1008B8001308F07FE38F05DD9305800363D1D5022C
:1008C8008146054691A09306F07FE30FD4D69306A0
:1008D8008003E3C7B6FEB7068000558FAE86FD4598
:1008E80063C8D504130800023308D840B358D600AB
:1008F800B315070133180601B3E5150133380001B4
:1009080033E60501B356D7003306C5403337C50073
:10091800B386D7403285B387E64037078000B3F601
:10092800E700E38306D27D17B3F9E7002A8979AA9D
:10093800938506FE93080002B355B7000148638803
:100948001601130800043308D84033180701336828
:10095800C8003338000133E60501814675B7F9C58B
:100968003388884015E8B3E5A700638B0524930511
:10097800F8FF91E93305A6401D8F3336A600B3076B
:10098800C740B68425B71303F07F63136806BA8798
:1009980032851304F07F55A89305F07FE389B8FEEC
:1009A8009305800363CA0505B7058000CD8FC2850E
:1009B8007D486346B804130300023303B340335E33
:1009C800B50033986700331365003368C8013333C3
:1009D800600033656800B3D5B7003305A640B3059A
:1009E800B7403336A600B387C5404684B68435B7CA
:1009F80013088003E35EB8FA81450545F9BF1388FB
:100A080005FE130E000233D8070101436388C501B0
:100A1800130300043303B340339367003363A30025
:100A28003333600033656800814545BF9305140082
:100A380093F5E57FADE533E8A700B365C70029E482
:100A480063170800F1CDBA873285B684F5BEE38D09
:100A580005BEB308C540B33515013388E7403308F0
:100A6800B840B7058000B375B80089C93305A640FA
:100A78001D8F3336A600B307C740C1BFB3E50801D1
:100A8800C5C1C2874685C9B663180800638E0514B8
:100A9800BA873285B684F5BEE38D05BE71BBB30552
:100AA800C5403338B500B389E740B38909413708F1
:100AB800800033F809012E89630008063309A6402F
:100AC8001D8F33362601B309C740B684638C0904E9
:100AD8004E85EFF0EFF5930785FF930600029D8E94
:100AE8003397F900B356D900D98EB319F90063CBFF
:100AF800870A818F8507130700021D8F3395E6004B
:100B080033D6F9003397E900518D3337E000598D1A
:100B1800B3D7F60001440DBEB3E53501C5F901446C
:100B28008147C9A04A85EFF0AFF0930785017D475B
:100B3800E355F7FA6115B316A90063CA870233852E
:100B4800874093071500E358F7FA051513060002C6
:100B580033D7A60001456387C700130500041D8D20
:100B68003395A6003335A000598D814765B71D8C94
:100B7800B70780FFFD17F58F9395D7018D83520432
:100B88003707F07FB207B183798C5D8CFE04B367B9
:100B98009400F2406244D2444249B2492E85BE854F
:100BA800056182801D8CB70780FFFD17F58F4E8584
:100BB80061BCBA8732852E8441BCBA87328569B454
:100BC800BA873285428451B51397D7010D819306B0
:100BD800F07F498F8D83631FD4005D8FB7070800AE
:100BE800E30C07B0814461BF81441304F07FB70769
:100BF800080071B7BA8561B779715EC6B28B13D632
:100C0800450122D44AD04ECE5AC81394C50006D600
:100C180026D252CC56CA1376F67F2A8B3689318073
:100C280093D9F5013DCE9307F07F6306F60C9356F2
:100C3800D5010E04C18EB707800033EAF60093147D
:100C48003500930A16C0014B935749011314C90084
:100C580093F7F77F31801359F901E9C31307F07F40
:100C68006388E7100E0413D7DB01418F3704800037
:100C7800598C139F3B00938617C0814593172B000F
:100C8800CD8F3386DA40FD17B94633C7290163E2B1
:100C9800F612B76600088A07938646B5B6979C434E
:100CA8008287336AA40063020A0605C82285EFF02A
:100CB8002FD8930755FFF546130785FF9D8E3314EC
:100CC800E400B356DB0033EA86003314EB00130666
:100CD800D0C0B30AA640A284BDB7EFF06FD52A8A68
:100CE80093075A01714713050502E356F7FC611A89
:100CF800331A4B01E9BF336AA400630C0A00AA84C3
:100D0800228A930AF07F0D4B81B78144814A054BB3
:100D180025BF8144930AF07F094B3DB7336F7401B7
:100D280063010F061DC42285EFF08FD0130755FF0E
:100D3800F547930685FF998F3314D400B3D7FB008A
:100D4800C18F3394DB009306D0C0228F898E3E84F6
:100D58002DB75E85EFF0CFCDAA8713875701F146EF
:100D680013050502E3D6E6FCE117B397FB00E1BFE4
:100D7800336F7401630B0F005E8F9306F07F8D4510
:100D8800F5BD014481468545D5BD01449306F07FF4
:100D98008945EDB54E875284268F89476306FB3611
:100DA8008D47630CFB3485476310FB24014481465F
:100DB80031AE6366440163148A2A63E2E42B931616
:100DC800FA0193D714001393F401135A1A00B3E4E9
:100DD800F600220493580401B35E1A0393558F0159
:100DE800C18D139805011358080193D704011315F1
:100DF8008F00B3761A03330ED803C206D58FF68652
:100E080063FCC701AE979386FEFF63E7B70063F5FF
:100E1800C7019386EEFFAE97B387C741B3DE1703CA
:100E2800C204C180B3F71703330ED803C207DD8CA1
:100E3800F68763FCC401AE949387FEFF63E7B400B2
:100E480063F5C4019387EEFFAE94C206C163B3EFA6
:100E5800F600B384C441138EF3FFB3F7CF0113DF59
:100E68000F01935E0501337EC501B302FE02330410
:100E7800CF0393D60201B387FE02A297BE96330F23
:100E8800DF0363F386001E9F93D70601FA97416F2D
:100E98007D1FB3F6E601C206B3F2E201969663E758
:100EA800F4007E846392F4046370D304330FA300C8
:100EB800B3326F00B383B2009E941384FFFF7A832A
:100EC80063E69500639295026390020263E6F4007C
:100ED800639C9700637ADF002A9F7A83333FAF00D1
:100EE8002E9F1384EFFFFA94B306D3409D8C3333BF
:100EF800D300B38464407D5F6388950EB3DF140329
:100F080093D70601B3F414037E83330FF803C204A6
:100F1800C58F63FCE701AE971383FFFF63E7B70054
:100F280063F5E7011383EFFFAE97B387E74133DF3C
:100F38001703C206C182B3F717033308E803C207D1
:100F4800D58FFA8663FC0701AE979306FFFF63E728
:100F5800B70063F507019306EFFFAE9742033363CB
:100F6800D30093160301C18293580301338FC6033C
:100F7800B3870741338EC803B3881E03B38EDE02DE
:100F880093560F01F29EF69663F4C6014168C29823
:100F980013D806014698C168FD18B3F61601C206B3
:100FA800337F1F01FA9663E607011A8F639C0703D4
:100FB80085CEAE97130FF3FFBE8863E1B70263E6F1
:100FC800070163910703637DD500130FE3FF131334
:100FD8001500B338A300AE98BE981A85639408012B
:100FE8006384A600136F1F009307F63F635FF00644
:100FF80093767F0081CE9376FF0091456388B60093
:1010080093064F00B3B5E6012E94368FB70600015C
:10101800E18E99C6B70700FFFD177D8C9307064040
:101028009306E07F63C2F60E9316D401135F3F0068
:10103800B3E6E6010D8032043180D207B250C18F89
:1010480022547E0733E6E70092540259F249624A75
:10105800D24A424BB24B3685B285456182807D16B5
:10106800014385BB4A872E8B0DBB854589CB9D8D5A
:1010780093068003E3CCB6D2FD4663CBB6041306D1
:10108800E641B357BF00331FCF00333FE0013316AB
:10109800C400336FCF00B3E7E7013354B40093F6CD
:1010A800770081CE93F6F70011466388C6009386D1
:1010B800470033B6F6003294B687B7068000E18E53
:1010C800A9EA9316D4018D83DD8E0D808147A5B7DB
:1010D8008556B387F64013050002B357F4008146DE
:1010E8006386A5001306E643B316C400B3E6E6011B
:1010F800B336D000D58F01445DB737040800814668
:101108009307F07F014705BF014481469307F07FAD
:101118001DB701448146854739BF797156CA93DAAC
:10112800450122D426D24ECE52CC5AC89394C5003B
:1011380006D64AD05EC693FAFA7F2A84328BB689DD
:10114800B18013DAF50163860A249307F07F638C74
:10115800FA288E049357D501C58FB7048000DD8C1B
:1011680013193500938A1AC0814B13D74901139478
:10117800C9001377F77F318093D9F90163070728EE
:101188009307F07F630CF72C0E049357DB01C18F94
:10119800370480005D8C930617C093173B00014508
:1011A80013972B00B69A498FA94633463A0193857F
:1011B8001A0063C1E630894663C3E62C7D1785466D
:1011C80063FEE62C4168930EF8FF9356090193D805
:1011D80007013379D90133FFD701B307E903338313
:1011E800E60313D50701338728031A973A95338EF8
:1011F800160363736500429E135705013375D501C5
:10120800B3F7D70113580401B37ED40142053E95C4
:10121800B30FD903B387D6033309280333830603EF
:101228003E9993D60F01CA9663F4F600C1673E93C0
:10123800C16393D706019382F3FF3E93B3F7560039
:10124800B3FF5F0013D90401B3F25400C207FE973D
:10125800338428033E97B30F5F02B388580293D6AE
:101268000F01330FE903FA98C69663F3E6011E945B
:10127800B3835E0213DF0601C164229F1384F4FF67
:10128800E18EC206B3FF8F00B69FB30ED90393D683
:101298000301B30828033308580276983698637315
:1012A800D801A698B3768800B3F38300C206729774
:1012B8009E963693B337F7009A97B336D30033B375
:1012C800670013580801B3E66600C2963308F701B1
:1012D8003E9F3337E8007A973334FF00333FE70106
:1012E8003364E401369446949357770126045D8C61
:1012F80093179800C98FB337F00013587801260761
:10130800B3E70701D98F37070001618F630F071A09
:1013180013D71700858B5D8F9317F401D98F05803C
:101328009386F53F6355D01A13F7770001CF13F76B
:10133800F70011456308A700138747003335F70006
:101348002A94BA8737070001618F19C7370700FF4A
:101358007D17798C938605401307E07F6348D72073
:101368001317D4018D835D8F0D8032043180D2062E
:10137800B250C18E22547E06B3E7C6009254025979
:10138800F249624AD24A424BB24B3A85BE85456120
:10139800828033E9A4006301090685C82685EFE049
:1013A8003FE9130755FFF547930685FF998FB394D7
:1013B800D400B357F400C58FB314D400930AD0C037
:1013C8002689B38AAA40BE8445B3EFE07FE6AA87A0
:1013D80013875701F14613050502E3D6E6FCE1172A
:1013E800B317F400E1BF33E9A400630B09002A89AD
:1013F800930AF07F8D4B95BB8144814A854BB5B3E9
:101408008144930AF07F894B8DB3B3676401B9CFE8
:101418001DC42285EFE0DFE1930655FF754793076A
:1014280085FF158F3314F4003357EB00418F3314C5
:10143800FB009306D0C0A287898E3A848DB35A8563
:10144800EFE01FDFAA87938657017147130505024E
:10145800E356D7FCE1173317FB00E1BFB36764011C
:1014680091CBDA879306F07F0D451DBB0144814679
:1014780005453DB301449306F07F094515B38546FC
:10148800B396E60013F706530DEF13F80624631519
:10149800080C93F68608E38706D24E860947630749
:1014A800E50C0D476300E50C0547E31BE5E6014441
:1014B8000147ADA8BD466307D70AAD465286E30E7D
:1014C800D7FC2684CA875E85D1BFD68591BD0545E0
:1014D80089CA158D13078003E34BA7FC7D47634931
:1014E800A7049385E54133D7A700B397B700B3376F
:1014F800F000B315B400CD8FD98F3354A40013F77F
:10150800770001CF13F7F70091466308D7001387D8
:101518004700B336F7003694BA8737078000618FE3
:1015280039EB1317D4018D835D8F0D80814635BD4E
:101538000557158F130800023357E40081466306E8
:1015480005019385E543B316B400DD8EB336D000AC
:10155800B367D700014465B7370408009306F07FE6
:10156800014621B5370408000147CDBF01440147B2
:101578009306F07FDDBB014401478546FDB3411169
:1015880006C622C426C229CD9357F54133C4A70005
:101598001D8C9354F5012285EFE09FC91307E041A4
:1015A800A947098F63C8A702AD47898F5505B35767
:1015B800F4003314A4002685B207B18352077E05D0
:1015C8005D8FB240B367A700228522449244BE854E
:1015D800410182805515B317A40026850144E9BF4F
:1015E80001478147E5BF01114AC81359750126CA49
:1015F8004EC656C29314950006CE22CC52C4137917
:10160800F90FAE8AA5809359F5016304091293076F
:10161800F00F630DF9128E04B7070004DD8C13096F
:1016280019F8014A93D77A0113949A0093F7F70FA0
:10163800258093DAFA01638507121307F00F638D8B
:10164800E7120E0437070004598C938717F80147EF
:101658003E9993172A00D98FA94633C55901130615
:10166800190063CFF614894663C2F612FD17854642
:1016780063FCF612C1681388F8FF13D70401935767
:101688000401B3760401B3F40401B3859602B306EA
:10169800D70213D405013307F702B3879702B69729
:1016A8003E946373D4004697B3770401C207B3F539
:1016B8000501AE97939667004180B336D000E98361
:1016C8003A94D58F1A045D8CB7070008E18F6383BD
:1016D80007109357140005885D8C1307F607635DA0
:1016E800E00E9377740099C79377F400914663836B
:1016F800D7001104B7070008E18F99C7B70700F8AA
:10170800FD177D8C130706089307E00F63C0E712E7
:1017180093573400F2406244A6075E07A5835D8FA5
:101728007E05D2444249B249224A924A598D0561FE
:10173800828085C42685EFE0BFAF9307B5FF130904
:10174800A0F8B394F4003309A940E1BD1309F00FE0
:101758000D4AE39904EC094AF1B50149054AD9B59E
:101768001DC02285EFE0DFAC9307B5FF3314F4000A
:101778009307A0F8898FE1BD9307F00F0D47E31990
:1017880004EC0947F1B581470547D9B58546B397B4
:10179800F60093F6075385EE93F60724D1E293F704
:1017A8008708E38907EC568589476301F7088D4761
:1017B8006308F7068547E312F7F28147014799BFA7
:1017C800BD46638FD704AD464E85E38ED7FC26848D
:1017D8005287D9BF4A8611B7854619C7998EED45F4
:1017E80081470147E3C8D5F21306E609B356D4008A
:1017F8003314C40033348000B3E7860013F777004E
:1018080019C713F7F70091466303D7009107370705
:1018180000047D8F8D83E30F07EE81470547DDBD0B
:10182800B70740001307F00F0145EDB581471307CF
:10183800F00FCDB537068000135775019307F6FFF3
:101848001377F70F9305E007E98F9356F50163DFE8
:10185800E5029305D00963D7E500370500807D15BB
:101868003695828033E5C7009307500963DAE700AD
:101878001307A7F63315E50099CA3305A0408280FF
:1018880093076009998F3355F500FDB701458280AC
:101898001397C50013D8450125831378F87F93570C
:1018A800D501D98F130718001377E77FFD81131629
:1018B800350055C3930608C81307E00F6348D70ED1
:1018C800634DD006255763C6E60E37058000794775
:1018D8005D8D158FFD4763CCE702130828C8335781
:1018E800E600331606013336C00033150501498E6C
:1018F800518F93777700A5EF935737008146A60756
:10190800A583DE06DD8E1395F501558D8280F95786
:10191800958F93080002B357F500814663061701B7
:10192800130828CAB3160501D18EB336D000D58F57
:1019380013F7770021E78D83D1B7131765008E075A
:101948003337E0005D8F7582518F9377770095EF7D
:10195800935737006DB7630E0804D18F9306F00FC5
:10196800D9DF81459306F00FB707400049BF937749
:10197800F7009146E382D7F8814639A813F7F700B4
:101988009146E30AD7FA91077DB71376F700114518
:1019980093573700E305A6F6110737060004798E3A
:1019A8009357370029DE8506814791BF9306F00FCC
:1019B800E5BF8146D5BF0000732540F1814263032E
:1019C800550019A817010018130141BD85629382BB
:1019D80002801691EF00501009A073005010F5BF57
:1019E8000000000023AA150280DDC4DD23A0250520
:1019F80023A2350523A4450523A6550523A8650577
:101A080023AA750523AC850523AE950523A0A50754
:101A180023A2B50723A8250223A2B508032105039D
:101A28000322C50883204503005D445D032905049E
:101A380083294504032A8504832AC504032B050545
:101A4800832B4505032C8505832CC505032D050629
:101A5800832D4506828082806F20905C411122C4CC
:101A68001D6426C24AC006C6376900081304045319
:101A78008144130509B9C92B2285A685F13FD5BF35
:101A8800411122C4156426C24AC006C63769000837
:101A9800130404E28144130589BA7D232285A685AF
:101AA800653FD5BF01114AC8096922CC26CA4EC66E
:101AB80006CE0144B7640008130909718149050479
:101AC800A2851385C4BB49234A85CE857137C5BF16
:101AD8000111094706CE2EC23AC42306E100834706
:101AE800C10018454C0093E727002306F1001C4766
:101AF8009306800605468297F240056182800111AF
:101B0800E1779387B7068A8506CE22CC2310F100A9
:101B18002A847D3F1305803E81453D3F9307B016DB
:101B28004C0022852312F1006537130540068145D4
:101B38002537F1472C0022852314F100513F2285D7
:101B4800ED476C002316F1006137F240624401450D
:101B5800056182801971DECEBE8B9307B003A30B9B
:101B6800F100930771013ED485473ED63C083EDA22
:101B7800B9473EDC9D47DAD0E2CCE6CAEAC8EEC6F1
:101B880086DEA2DCA6DACAD8CED6D2D4D6D2AE8D1C
:101B9800328DB68C3A8C428B46C423080102230E40
:101BA800F1028347C10318459306800693E727008F
:101BB800230EF1021C4709462C108297AA8763104E
:101BC80005140357A1012AC6931A87002183B3EA93
:101BD800EA000357C101C20A93DA0A41131A8700BF
:101BE8002183336AEA000357E101420A135A0A4182
:101BF800131487002183598C03570102931704019A
:101C0800C187931987002183B3E9E90003572102AB
:101C18003EC2376400081319870021833369E9003D
:101C280003574102C20993D90941931487002183BC
:101C3800D98C0357810142091359094113158700AB
:101C48002183598D420541851D3A0326049B83262D
:101C5800449BC204C184EFF04FCC1D3923A0AD00D2
:101C68005685313A0326049B8326449BEFF0EFCA3E
:101C780005312320AD00528519320326049B8326A3
:101C8800449BEFF08FC9293123A0AC004E85C5389D
:101C9800B769000803A6899B83A6C99BEFE0DFF517
:101CA800C53E2320AC004A85D93803A6899B83A664
:101CB800C99BEFE07FF4E93E23A0AB002685C13045
:101CC80003A6899B83A6C99BEFE01FF3D136232087
:101CD800AB0012456D30376700080326079C832642
:101CE800479CEFE07FF1376700080326879C83262F
:101CF800C79CEFE09F8D693EA24788C3B247F65064
:101D08006654D6544659B659265A965A065BF64B27
:101D1800664CD64C464DB64D3E85096182805D7154
:101D2800B7670008A2C403A4079D86C6A6C2CAC096
:101D38004EDE52DC375500089308C10213088102B1
:101D48005C101810740830084C081305455F1935E5
:101D580001CD37650008130545BDFD24056513054C
:101D680085388145D539F9B737650008130505BDAC
:101D7800E12C0255A285EFF01F876D3C2A89125588
:101D8800A285EFF05F867D34AA892255A285EFF0FF
:101D98009F854D342A8A3255A285EFF0DF84593C5D
:101DA800AA847245A285EFF01F8469342AC6624569
:101DB800A285EFF05F83BD3C2AC45245A285EFF0AF
:101DC8009F828D3CB2462246AA85376500081305D6
:101DD80045BE9D2C37650008CA85D2864E861305F8
:101DE80085C09D2437650008A6851305C5C2A92CA2
:101DF800B5B7011106CE22CC26CA37540008130500
:101E0800445FEF20800001ED37650008130545C4E5
:101E1800252CF2406244D244014505618280376531
:101E280000081305C5C50D241305445FC9390144CD
:101E38008144B7260008B715002022C426C602C070
:101E48008548014881470147938666D213060040BA
:101E58009385051A138581A0EF200040B726000856
:101E6800B715002022C426C602C089480148814708
:101E780001479386C6AA13060040938505DA1385A1
:101E88008197EF20603DB726000822C426C602C00D
:101E98008D48014881470147938686A8130600406C
:101EA800938501181385818EEF20003BB726000823
:101EB8003705002022C426C602C091480148814740
:101EC8000147938646A613060040938501D813055B
:101ED8008507EF20603835BF8E052E950355250000
:101EE80005818280411106C622C426C22A84AE8496
:101EF800E537EFE0EFB3FD473385A740131725001B
:101F080022970328070193973400938547009396F7
:101F180004019907A295A297C18263120802054697
:101F28003315A6005044498E50C404CB2390D500E5
:101F38002390D700B2402244924441018280131773
:101F4800380011072297035607002390C5000E0694
:101F58002390070132942313D4002310D700D9BF4C
:101F68000111711622CC26CA3384C50093847500EA
:101F7800E198619806CE4AC84EC6058C935934003C
:101F880004C123A4340123A604004E85EFE04FAA20
:101F9800130940023309A94013060002098E0A09F1
:101FA8008145138504011D090A06EF30A04E135917
:101FB80039009317190093E717002391F40033872A
:101FC80029419317390023900400A6979316170008
:101FD8002391D7002390270126948E09231104000A
:101FE8002310E400A69983D72900CA85268593E79C
:101FF80017002391F9006244F240D2444249B249A1
:102008000561CDB501458280B707002083A7070287
:102018008287B707002023A0A7028280797102C8AF
:1020280089472308F100B72700082E869387070100
:10203800AA85680006D602C602CC02CE3ECAEF20A8
:102048001074B2504561828039712ED24C1006CE80
:1020580032D436D63AD83EDA42DC46DE2EC67D3F4A
:10206800F24021618280011126CA4AC806CE22CCDC
:10207800AA842E8932C636C4EF2030032246B245E0
:102088002320A2004A85829403250200EF20F01540
:1020980082802DA33DABF3770430735040307350EA
:1020A80040348280411106C622C473740430EF1094
:1020B80090169377840073A00730B2402244410100
:1020C8008280828082806F30E03C6F30403B3705F1
:1020D8000020130685049387C1D73386C7408145FE
:1020E80013058504CDB737050020B707002093876F
:1020F800870413060500B765000841113386C740F9
:102108009385852C1305050006C6C137B2403705EF
:102118000020B70700201306050093870700B7655E
:1021280000083386C7409385852C130505004101B7
:1021380069BF411106C67137730050106137A14756
:1021480073A00730B24041018280130505068280E2
:10215800797122D44AD006D626D24ECE2A892E8428
:10216800F3252034B7690008D205D181138509BD4C
:102178002EC6D93DB245C146B7670008414763E35B
:10218800B6002E870A07938787FEBA97904337656C
:1021980000081305C5C64D3DF325303437650008E2
:1021A800130505C8553509E88144A6852285112EF1
:1021B800A2854A85EF10F04750400C50376500085B
:1021C800130505C9513510444C50376500081305EF
:1021D80005CB9D3D50440C5437650008130505CDCB
:1021E800A53510484C5437650008130505CFA93D9F
:1021F80050480C5837650008130505D1B135104C07
:102208004C5837650008130505D33D3D504C0C5C10
:1022180037650008130505D5053D4C5C3765000892
:10222800130505D71535376500089305040613050A
:1022380005D8193D0C4037650008130505D929351F
:102248006C4037650008130505DAFD3B2C443765FB
:102258000008130505DBCD3B138509BDF53324487C
:10226800E38404F490508C4437650008130505DCBA
:10227800E13BD050CC4437650008130505DEE9334F
:1022880090548C4837650008130505E0753BD05419
:10229800CC4837650008130505E27D3390588C4C0F
:1022A80037650008130505E44533D058CC4C37652D
:1022B8000008130505E6493B138509BD7133F5B5DB
:1022C8004111AA85014506C66135411106C6F327A5
:1022D800203481450545AD3D411106C6CD3B21352C
:1022E8005D3BEF10904F130606FA419A1CD689679A
:1022F800938707883CC6B72700089387E7067CC200
:10230800B707000814D258D2232606032320060450
:102318009387471910D95CD92322A5088280130511
:10232800A0F78280011152C426CA4EC69304400009
:1023380093090000CE9422CC33849540B7650008F9
:102348004AC8130600002A899385C59A228506CEB5
:10235800EF30E01233053401130640008145EF30B9
:10236800601323268908F24062444249B249224A4E
:102378002685D2440561828093773500AA869DE739
:1023880083C7D500858B85C337170020856713075A
:10239800075A93870780BA97C19B014563E9E6000E
:1023A80033B5F6008280F859BC5DF5B701458280E7
:1023B80039714AD84ED652D456D25AD006DE22DCCB
:1023C80026DA5ECE62CC66CA6AC86EC6AA892E8A2A
:1023D800B28A36893A8BA1C23685853B8324490463
:1023E8002A84370C0008B75C0008814B814D130C18
:1023F8008C23938CCC4A214D4A86D6852285029B14
:1024080029C963F88D0463F98403044093074400E1
:10241800A28D3E84D5B781CB1387C1D51847130742
:1024280007036398E700B72400080A849384843B71
:102438004DBF8043C44375B7E3F994FD2286A68552
:102448005285829919C5850B044093074400E3918E
:10245800ABFDF2506254D2544259B259225A925AA0
:10246800025BF24B624CD24C424DB24D21618280EC
:10247800411106C6AE860C411387150018C1376591
:1024880000081305C502C936B240054541018280DE
:10249800937635002A8785E681C583A7C1D599CF6C
:1024A800B71700209387075A0145636BF7008566C5
:1024B80093860680B6973335F700828075BD01454F
:1024C800828079712AC6376500081305C50406D6C7
:1024D8002EC402CE953E1386C1D5A247B2461046F9
:1024E8003727000837250008130787496C081305A4
:1024F80085477D3D37650008130505BDB136B250E7
:1025080045618280B707002083A70706411106C6E8
:102518008297B240014541018280411106C6DD37EC
:10252800B240014541018280B707002023A0A706D9
:10253800B70700209387070003C7470013672700E2
:102548002382E7008280B72500209385753AE199B8
:10255800378600204111138501C60D8E06C6EFF09F
:102568003FA0B2400145410182805C4118499C432B
:1025780023A407005C41834607009C43DC43D583C2
:10258800BD8BA300F70063F4D7002300F7005C417C
:102598000347070094433D8B06079C42859BD98FD0
:1025A8009CC285679386C715584118433E972320D8
:1025B80007009107E39AD7FE01458280130505407D
:1025C800B70700D285070A053E9585472300F50021
:1025D8008280B707002083C847029387470203C851
:1025E80017008547B3971701FD17A14693F7F70F13
:1025F800B386064163F3F500AE87214733071741D9
:10260800B397E7003308184105473313D70033174A
:1026180007017D177D131377F70FB3E7670063F39F
:10262800E5002E873317D700D98F130505403707E4
:1026380000D20A05930637000D8AAA9693F7F70F7A
:10264800060609072380F6001366060C3A95230050
:10265800C5008280011126CA4AC84EC652C406CE99
:1026680022CC03440500AA84B7090140054A13890E
:10267800C1C683C7140063FA8700F2406244D2449B
:102688004249B249224A05618280138749411C4365
:10269800B3D78700858B81CFB3178A001CC39317E4
:1026A8003400CA97984301C7CC4322850297050492
:1026B8001374F40F7DBF411101468145654506C677
:1026C800EFF05F9D014681456945EFF0BF9C0146EB
:1026D80081456D45EFF01F9C014681457145EFF03E
:1026E8007F9B014681457545EFF0DF9A014681459C
:1026F8001305A002EFF01F9A1305B00301468145A8
:10270800EFF05F99B24001454101828037070140EF
:102718001307074014438547B397A700D58F1CC3F9
:10272800B76700089387C7093E95034505006FF012
:102738005F96370701401307074014438547B3974F
:10274800A70093C7F7FFF58F1CC382808547339591
:10275800A70013F71500B70701409387874011CFEB
:102768009843498F98C3B70701409387C740984358
:10277800898989C9498F98C3828094431347F5FF93
:10278800758FCDB71345F5FF798D88C38280938601
:10279800C1C613173500BA9694429387C1C681C63D
:1027A800130580F889E5BA978CC3D0C301458280A8
:1027B800584183D605000145184393D7660093F71F
:1027C800F70FBA97904305473317D700518F98C32F
:1027D80082805C4183D6050001459C4313D766007F
:1027E8001377F70F3E9710438547B397D70093C7E2
:1027F800F7FFF18F1CC382805C4183D50500E14659
:102808009C43D84393D7650093F7F70F6388D704A1
:10281800F146638ED702D1461305A0F76398D70215
:102828001183B76700083D8B9387470CBA9783C617
:102838000700B7F76F0693870730B3D7D74013055C
:102848000070814605481CC28DC2014582802183E3
:10285800B76700081D8B9387879FC9BF2D83B7670C
:1028680000081D8B9387879FD1B7E390A5FEE30EE1
:1028780007FD86078546C1BF544103D705000545B6
:1028880094429357670093F7F70FB6979C43331515
:10289800E5007D8D3335A00005058280411106C60F
:1028A80022C4375500081305855DEF100056B5574B
:1028B80019C9373400081305848DBD311305848D7B
:1028C800EFF02FF58147B24022443E8541018280D6
:1028D800411122C426C24AC0B754000806C6A947F7
:1028E8002A841389845D6319F50083278900B54517
:1028F8001385845DDC438297832789001385845D73
:102908009375F40FDC438297B240228522449244A7
:102918000249410182805C418546B396B600D8439E
:102928009D473A8863F7B700E1151308470093F508
:10293800F50F032508008A05BD47B397B70093C76D
:10294800F7FFE98F37050200718D1DCD137526003D
:1029580005C5937846001305A0F7638E080019454E
:10296800B315B500CD8FB7050800F18D81C914CB1B
:102978002320F800014582800945DDB7B70504002A
:102988006D8E7DD654CBEDB74165718D75D11375BC
:10299800060111C521463316B600D18FC9BF13767B
:1029A800060211C621463316B600D18FE1BF114782
:1029B8003317B700D98F6DBF5C410145DC439C4795
:1029C8009CC182805C410145DC43D847398E6D8EBD
:1029D800398ED0C782805C410145DC438CCB828034
:1029E8005C410145DC43CCCB82805C410145D84346
:1029F8005C47AD8F5CC782801C49D84321C3631CE8
:102A0800B70298419447D8C36393D50098C723A0C9
:102A1800050019C6D84398C19847CCC311E38CC7A1
:102A2800014582806399E500984198C29847E390F0
:102A3800E5FE94C7E9BFBA8618436DF761FE2955CC
:102A48008280AA8537550008930745519C479C43C7
:102A580081C71305455182878280411122C406C669
:102A680026C24AC0B70720002E846312F6022E85BC
:102A7800C931814501462285193B81452285F931B5
:102A88000145B24022449244024941018280B7077D
:102A980040016310F608B73500082A892A8693850D
:102AA80005B32285B684E531E34D05FC13572400B0
:102AB8008D47832649002955E3E5E7FCB707014020
:102AC800A1070A073E97DC42B706FFBF9386068038
:102AD800B697937634000C438A063D463316D600E3
:102AE8001346F6FF6D8E10C31043A98393F7F70FB3
:102AF800B397D700D18F1CC3B7070004638EF400C7
:102B0800B70700066380F402B707000289456386A9
:102B1800F4001305A0F7B5B7854522850539228548
:102B2800F536B9BF8D45D5BF411126C206C622C4A8
:102B38004AC09C49AE84CC4391C5804105493319AC
:102B4800A90099E5B2402244924402494101828099
:102B580090453376C90001C6DC41268582978147B6
:102B680011C01C40A2853E84E9BF411106C622C49B
:102B7800404113058400F1351305A400D9354844B4
:102B88000C481C45DC4791C38297B240224401455A
:102B9800410182806F1080511C49544198571DCFC4
:102BA8007D1798D711E7904258421377F7BF58C25C
:102BB800D05758427D1758C29842D457944283C67A
:102BC800060014CBD4579842050798C2985719CFD6
:102BD800D857544381EE3107D8D782809442138561
:102BE800070198421367072098C26DB78280544145
:102BF8001C499042584A9375071099C94C4A93F555
:102C0800F5EF4CCA03C60703136616002388C702EC
:102C18001376072001CE8C42D0491376F6DFD0C94F
:102C280003C60703136626002388C70213770740E5
:102C380005C79042584A1377F7BF58CA03C7070316
:102C4800136747002388E7029442138507019842D7
:102C58001367072098C23DBF03C7070375F7828033
:102C68004111014681451305200306C6EFF08FC2C6
:102C780013052003EFF0EFC113053003014681452A
:102C8800EFF04FC1B2401305300341016FF06FC040
:102C980058555C43FD175CC39C41984B5C559C435D
:102CA8002380E70058551C4385071CC31C5591C752
:102CB8005C55D84319E3B1075CD58280AA870849D7
:102CC800CC4305471C55638DE7006379F70093866D
:102CD800E7FF6372D702FD171CD55DBF41055DBDD7
:102CE800011106CE232405022AC65D373245F2407B
:102CF80041050561EDB798415C4393F7F7BF5CC3A5
:102D08008280011106CE22CC4C4100499C41D84B0F
:102D18001376170005C254540357440283C686002D
:102D28000607858A99C21367170098CBF240624458
:102D3800056182801376870001C603576402F5B7E0
:102D48001376270035C6585403478700058B09CBEF
:102D5800145409476366D70098431377F7BF98C39D
:102D68009C4183461403D84B984F58548DC6A308EA
:102D7800040283478700F99B2304F70058548347CC
:102D8800870093E717002304F70098411C4393E753
:102D980007101CC361BF03478700058B41DB145430
:102DA8000547E395E6F898431367072098C3BDBF26
:102DB80013764700AA863DC2585403478700058BFF
:102DC8002DC7185489466309D7008D46630CD7026E
:102DD8006244F2400561DDB5984322852EC613672B
:102DE800072098C31C54FD171CD45D351C54B245EC
:102DF8002285FD171CD4693D130504016244F24085
:102E0800056149BB984322851377F7BF98C31C54C3
:102E1800FD171CD46244F24005619DBD93770704F9
:102E2800C5FB13770708E30307F06244F2403685D1
:102E380005619DB3011106CE22CC26CA4AC8444179
:102E480000499C409C4F898B99CBC1472308F402C9
:102E58004155F2406244D2444249056182802A8940
:102E6800130504012AC6EF10402E231804029840C7
:102E780032451C4393E707401CC35C5483C7870053
:102E8800858B85CB185489476319F70094400567EB
:102E9800130707809C42D98F9CC21C50858B91CB0D
:102EA80058548547A308F40283478700F99B2304F5
:102EB800F70098405C4393E707105CC398405C4375
:102EC80093E707205CC398405C4393E707405CC3E3
:102ED80098401C4393E707101CC37D56FD55EF101F
:102EE800A02383274900032609019443D842137776
:102EF800F7EFD8C29443D8421377F7DFD8C2944388
:102F0800D8421377F7BFD8C2984361071C43898B0F
:102F1800F5FF834706036D558DFF01451DBF797188
:102F28004AD006D622D426D24ECE83290501404166
:102F38002E89FD557D564E85EF10001E18403755D9
:102F480000081C43F99B1CC3930745519C47DC4769
:102F580099C793058400700013054551829732473D
:102F6800B7470F00B7464703938707249386F6BBF6
:102F7800B357F7029304A0F763EFE60693561900D8
:102F88009D8A09466386C6080D46638CC60E0546AB
:102F9800A9546392C606B7861E009386F647930423
:102FA800A0F763FAE6041440D842137707FCD8C2A6
:102FB8001440D8425D8FD8C29306600318406397C7
:102FC800D7041CD33247B7170300938707D4335766
:102FD800F70214407D76DC4EF18FDCCE1440DC4ED7
:102FE800D98FDCCE144061777D17DC4EF98FDCCEAB
:102FF80023A0290381444E85EFF0DFB9B250225453
:103008000259F2492685925445618280850755BF49
:10301800B7167A009386F61F9304A0F7E3FDE6FC43
:103028001307C012B387E7021307803E1440B3D7D3
:10303800E70285079CD23247B79798001386F7674F
:1030480085466376E60093870768B356F70218400B
:1030580011665C4FD18F5CCF18407D765C4FF18F45
:103068005CCF18405C4FD58F5CCF1840A1665C4F91
:10307800D58F5CCF1C40938707099843799B98C3E9
:1030880085BFB7366E019386F65F9304A0F7E3F425
:10309800E6F693068007B387D7029306803E18406A
:1030A800B3D7D70285071CD3B24637877D011306ED
:1030B800F78385476376D60013070784B3D7E602FC
:1030C80014401166D84E518FD8CE14407D76D84E14
:1030D800718FD8CE1840544FD58F5CCF1840A16659
:1030E8005C4FD58F5CCF1C409387070998431367C3
:1030F800170071B7011126CA06CE22CC4AC8404132
:1031080003290501AA84484870008145D5226347F0
:103118000508B247014683C5470088433524634FF5
:103128000506054685454A85EF00D07681457D56DA
:1031380013050901EF00107637550008930745512C
:103148009C47930584009C4381C71305455182978A
:1031580048440C481C45DC4791C382971C4C829715
:103168005C4037470F001307072499456383E7023C
:10317800636CF70261671307076A8945638BE70089
:1031880037E7F9FF13070758BA9793B717009395CE
:10319800270093E50501268559330145F24062442D
:1031A800D24442490561828037E733001307071488
:1031B800A145E380E7FE37574C00130707B4A9453C
:1031C800E389E7FC8145F1B7797122D44AD04ECE24
:1031D80052CC06D626D256CA5AC85EC683C78500C0
:1031E800832B0501832A450093E747002384F500D4
:1031F800AA892E8A328936842E878547637DF90805
:10320800FD557D565E85EF00307103A70A001C430B
:1032180093E717001CC383A70B02858BC5C7935779
:1032280084008D8B93E7070F1374F40F2392FB022E
:1032380023938B0281440144314B63FA2403B387FF
:103248006403850493F4F40FD29723A6FB02CC43BE
:103258003E8623A4BB0283C68700639A2407858A17
:103268004E85D1C2EFF01FBD2A84E35805FC03A7A1
:103278000A005E851C43F99B1CC3EFF0BF91B25056
:103288002285225492540259F249624AD24A424B48
:10329800B24B4561828063FE27018346870003465F
:1032A8004701B3C5C600858999C1118A21C2898A97
:1032B80095EE144385CE544395CA8507310793F795
:1032C800F70F2DBF1374F40723928B02A5B703479A
:1032D80046013106358F058B59F35842850493F41E
:1032E800F40FBA95BDB7EFF0FFB4BDBF295441BF85
:1032F8001C411CC28346450018418E06369763E47C
:10330800E7007955828003C757006304B700A10717
:10331800CDB701458280AA853755000893074551E6
:103328009C479C4381C713054551828782800111C0
:103338001305E1009307006006CE2317F100E13F73
:10334800F240014505618280638105161D71A6CA98
:1033580086CEA2CCCAC8CEC6D2C4D6C2DAC05EDE79
:1033680062DC66DA6AD86ED61C41AA84A9831397F0
:10337800070193F7F73F41839DC7058BB7060140C7
:1033880065E7910613D6170013D7670088427D8A30
:103398000D8B3317C7001347F7FFA183698FB397C6
:1033A800C700D98F9CC28A05376B0008B76B000825
:1033B800B389B400130BCB16938B8B173D4D894CF7
:1033C800054C914D80409377F400139717005A9756
:1033D800035707008A07DE9703AA0700935744009C
:1033E80013F9F700935A8400231FE100A18B93FA85
:1033F8003A00ADEF52884A871305E1013AC642C444
:10340800193F224832478D45832608000A07B3171B
:10341800ED0093C7F7FFF58F63919A079356A401C0
:103428008D8A6383B600850637050010618D13E623
:10343800C60019E113E686003316E600D18F232073
:10344800F8009104E39099F8F6406644D64446495A
:10345800B649264A964A064BF25B625CD25C425DEC
:10346800B25D014525618280F10629BF130789FFF6
:1034780013084A001377F70F41B7E3928AFD758066
:103488000D8809E43397ED00D98F55BF33192C0106
:1034980063189401232A2A01A1463397E600EDB761
:1034A800E31C84FF23282A01C5BF2955828058417F
:1034B80093D7650093F7F70F18430145BA979843D8
:1034C8008547B397B700F98FB337F0002300F600AC
:1034D8008280584193D7650093F7F70F1843014549
:1034E800BA9794430547B315B700D58D8CC382802E
:1034F8005C4113D765001377F70F9C4301453E974E
:1035080014438547B397B70093C7F7FFF58F1CC3DC
:103518008280411106C622C426C22A84AE84553F41
:10352800A6852285F137B2402244924401454101E3
:10353800828018495C4399C30C478287828005457D
:1035480082801C49CCC390C78280011122CC26CA34
:103558004AC806CE4EC683294500AE843289014446
:10356800B30789406358F00003A509009D45EF00A3
:10357800C07B09E9F24022856244D2444249B249FB
:1035880005618280B387840083C5070003A509000D
:103598000504EF008078E9B75C41994588436F00DE
:1035A800C0785C41954588436F002078411106C674
:1035B80022C440410840EF00407608409D45EF0096
:1035C800C07665DDB240224441018280011122CCDF
:1035D80026CA4AC806CE4EC683294500AE8432891B
:1035E8000144B30789406358F00003A509009545D5
:1035F800EF00A07309E9F24022856244D2444249AF
:10360800B2490561828003A50900EF008071B38784
:1036180084002380A7000504E9B7411122C406C627
:1036280026C244412E8495458840012719C98840FF
:10363800CD2D2300A4000145B2402244924441010B
:1036480082807D55D5BF5C4193056030884309AFC2
:103658005C4193055030884321A7411106C622C416
:103668004041930500500840E52D08402244B240EF
:10367800930580304101EDA55C4193056030884396
:10368800E5AD5C41930550308843FDA5411106C660
:1036980022C44041930500500840F92D08402244B7
:1036A800B240930580304101C1AD411106C622C424
:1036B80040419D450840952D09CD0840B7050600B5
:1036C80093856530C12D3335A000B24022444101B5
:1036D80082800145DDBF411106C622C4404195459F
:1036E8000840A12509E908409945812519EDB2400E
:1036F8002244410182800840B70505009385553072
:10370800512DAA870545E5F7F9BF0840B70506001A
:103718009385653041253335A000D1BF411122C4BE
:1037280006C626C24AC003294500014403250900EC
:10373800044193F7340081C78D45292505448588C0
:1037480099C403250900854513644400E52B032526
:1037580009008945C52BB24022852244924402497A
:10376800410182804111130580030146814506C647
:10377800EFE05F92B2401305800341016FE07F9153
:10378800797126D206D622D44AD04ECE52CC4041A8
:1037980003290501AA84084870008145EFF05FB548
:1037A800634C0508B247014683C547008843EFF0DC
:1037B800BFB9634305085C4809471305A0F7636D63
:1037C800F706B766000813971700938746A2BA97BB
:1037D80083D90700B76700089387C7A1BA973755F9
:1037E800000803DA0700930745519C4793054400F6
:1037F8009C4381C713054551829708444C441C4596
:10380800DC4791C38297832509000840A92908400D
:10381800D2855D290840CE85C12108408145F12126
:1038280008409145F5210840A145F1290840F921B2
:103838001C4C268582970145B25022549254025955
:10384800F249624A45618280B70700D1D84388436C
:10385800CC43E39DE5FE82804111014681451D452B
:1038680006C6EFE03F83CD3705661306C6A8814636
:10387800EFC0DF9FB707002023A4A70423A6B7043F
:1038880085679387C7A83387A702B7060020333513
:10389800F50223A8E604B385B702BA9733B7E70061
:1038A800AA9523AAB604B306B700732740F13706D2
:1038B800201A050632970E077D5650C31CC31D45B6
:1038C80054C3EFE00FFDB240014541018280411130
:1038D80006C622C473740430853FB706002003A7C8
:1038E800060585679387C7A8198D3355F50203A682
:1038F80046052188B307F5023E97B337F700B2971C
:1039080023A8E6043707002023AAF60483278704A0
:103918000326C704B386A700B3B7F600B2972326D9
:10392800F7042324D70423A20184732004302244FB
:10393800B24041016F10604073760430FD57B705FF
:103948000020631BF50283A7050503A74505370576
:1039580000C03E95B337F500BA97732740F1B70614
:10396800201A850636970E07FD5654C308C35CC354
:10397800218A732006308280B706002003A741847D
:1039880083A7860483A6C6041358F541BA9733B7AC
:10399800E7003E95BA963337F500B387060185668A
:1039A8009386C6A83E973307D702B337D5023305A7
:1039B800D502BA9703A7050583A64505B388D7405E
:1039C800B305E5403338B50063960801370800C0F1
:1039D800E375B8F8370500C03A953337E500B30703
:1039E800D700A5BF411106C622C473740430A93D8F
:1039F800B707002083A7070521881D8D8567938752
:103A0800C7A83355F50223A2A18473200430B2401D
:103A1800224441018280B71702409843B706FFE06D
:103A2800B1061367170098C3D84337060200758F8D
:103A3800D8C39843B706F7FEFD16758F98C3984309
:103A4800B706FCFFFD16758F98C3D843B70601DF8C
:103A5800FD16758FD8C323A607029843B706F7EA61
:103A6800FD16758F98C33707FF0098C794434167C1
:103A7800D98E94C39307F7FFB71602409842718F07
:103A880019E3FD17E5FFB71702409843B706020090
:103A9800758F11E301A0D843B706C4DFFD16D8C35C
:103AA800D843D8C3D84313670740D8C3D843758FC2
:103AB800D8C3D843B7062920558FD8C3D857BD7661
:103AC800758FD8D7D857C166938616F1558FD8D732
:103AD8009843B7060004558F98C3B7060008B71770
:103AE80002409843758F75DF9843B7060010558FCD
:103AF80098C3B7060020B71702409843758F75DF43
:103B08009843B7060001558F98C3B7060002B71748
:103B180002409843758F75DFD843719BD8C3D8434B
:103B280013672700D8C3371702405C43A18BF5DF22
:103B380082807971B765000822D441462A8493852A
:103B480045A4080806D6EF109013B7070304938717
:103B580017203EC23EC602C002C4B7170240D8436F
:103B6800894609830D8B6311D70ED843C166758FBB
:103B780035C3D857758F31CBD857DC57C546118315
:103B8800A183BD8B3D8B890705076393D700D14778
:103B980037157A00130505203355E5023305F5027C
:103BA800B7170240DC57BD8B85073355F502371729
:103BB80002405C435843B7060020C983758FBD8B0C
:103BC80019CF93E7070185070DA037157A0013056C
:103BD8000520F9B737153D0013050590C9BF3D47C6
:103BE800E383E7FE8907638BE7043385A702B716EB
:103BF8000240DC429183BD8B938707028A9703C7F3
:103C080007FFDC423357E500A1839D8B93870702AA
:103C18008A9703C607FEDC42AD839D8B9387070214
:103C28008A9783C687FE8947630CF40263E3870299
:103C380011C03A85B2502254456182809947B30732
:103C4800F50205813E9565B7B7177A0013850720F9
:103C580079BF8D473355D700E30EF4FC0145D9BF32
:103C68003355C700C1BF4111B757004022C426C20F
:103C780006C6138707C02A84AE84630DE500636D0A
:103C8800A700B7C7FFBF938707C0AA9793F7F7BFE7
:103C9800014591EF094519A8E30EF5FEB747014024
:103CA8009387078001456314F4000D45593593D572
:103CB8001400AA95B3D59502C205C1810CC4B240BF
:103CC80022449244410182805C4593F7F79F5CC58A
:103CD8005C45CD8F5CC582805C457D777D17F98F0B
:103CE8005CC55C45CD8F5CC582801C4975777D17A6
:103CF800F98F1CC91C49CD8F1CC982805C45096796
:103D0800D98F5CC582805C45DD9BCD8F5CC5828088
:103D18005C45ED9BCD8F5CC5828093F5F51F4CC14A
:103D2800828048411375F51F828093D7650093F709
:103D3800F73FAA979C4305453315B5007D8D33356C
:103D4800A000828093D7650093F7F73F3E9518410E
:103D58008547B397B70093C7F7FFF98F1CC18280D7
:103D680093D7650093F7F73F3E9518418547B3957C
:103D7800B700D98D0CC1828093D7650093F7F73FC0
:103D88003E9518418547B397B70093C7F7FFF98F5A
:103D98001CC1828093D7650093F7F73FAA97984391
:103DA80093D76501AA97944313D5050185473395A1
:103DB800A700758D11C5B397B700F98F3335F0009B
:103DC8008280411122C406C65C492A8499EF0145C4
:103DD80058443305A0408347170093E71700A30012
:103DE800F700B24022444101828082976DD19357F7
:103DF800F5413D8D1D8D9307F00F63D4A700130582
:103E0800F00F5C442380A700E1B701CD5845014578
:103E180083471700858B99C703450700133515009D
:103E2800828001458280F377043001A0411106C6E3
:103E3800DD3F411106C622C426C27374043093873D
:103E4800C1D584472188DD37732004302244B2402D
:103E58002685924441016F00503913172500B76732
:103E6800000805059387471D0A0541113E97AA9743
:103E780022C426C20043844306C663679400B24046
:103E88002244924441018280484001C98347850108
:103E9800858B91E33D372104CDB71C408297E5BF60
:103EA800797105470D45238AE18406D622D426D2A6
:103EB8004AD04ECE5D37EF0050791145793FB7674C
:103EC8000008376900081384878F9384878F130944
:103ED800898F636C24032684EF004079FD54B74929
:103EE800000863682405EF00207AEFD09FF09387DD
:103EF80081B203C7C700799B2386E700B2502254DA
:103F080092540259F249456182805C503EC21C506D
:103F18003EC05C488328C4010328840118485444DF
:103F280010444C400840792C1C40A0D713040403CB
:103F38004DB7105454546314960063889600B367C1
:103F4800D600084091E7EF0030121304040351BF74
:103F58009385095C6105EF005043C5BF01114AC84C
:103F6800130900093309250326CAD144938781A977
:103F7800B725002022CCB74600082A84938505DAA5
:103F8800B30495023E999387C1D5260502C2AA9526
:103F9800BD484A850148BE9485473EC0268781476B
:103FA8009386E6081306002006CE292C8347D900FD
:103FB800238884000504ED9BA306F900B7170020A9
:103FC8002E049387075A3E9423A62401C0C0F240CA
:103FD8006244D2444249056182807971014506D61E
:103FE80022D426D24AD04ECE8D3D0142138581BBC4
:103FF800652CEFE02F8B05458D350945B93DEF0060
:10400800E070B76700089387C71C3EC28547B7466C
:104018000008B7250020138981B28148014801476B
:10402800938686EA13060040938505FA3EC093847A
:10403800C1D58147138581B223AA24016122834710
:10404800D900138581B2ED9BA306F900012B014528
:1040580031377379043083A98400D55723A0F90830
:10406800F37704307125638CA9002A8488C4EF0093
:10407800101E03254408CE85894273000000137979
:10408800890073200930411106C6F3770430EFE048
:104098004F8AE5BFAA87295509CA6368B6008CC745
:1040A800D0C79CC3DCC3014582808280011106CE43
:1040B80022CCF375043000416302850421C05840C6
:1040C8001C40130584012EC61CC3D8C38347D400E3
:1040D8002320040023220400F59BA306F4002324D4
:1040E8000400EF00504022852320040885296244FB
:1040F800B245F2401385C1D7056109A318455C454F
:10410800A189998FB337F000BA971CC573A0053001
:10411800F240624405618280AE863287F3750430CE
:104128001C4581CBFD171CC5A18973A0053001452D
:104138008280B3E7C60091E7A18973A00530415595
:1041480082802A861385C1D79DA9011126CA06CE69
:1041580022CC4AC8AA84F375043081475559804057
:10416800638E840205CC58401C40130584012EC67A
:104178001CC3D8C38347D40023200400232204008F
:10418800F59BA306F40023240400EF00D035228514
:1041980023202409E126B2458547D1B723A404008A
:1041A80089CB6244F240D24442491385C1D70561A4
:1041B800B1A1A18973A00530F2406244D2444249BA
:1041C80005618280797106D622D426D24AD04ECE95
:1041D800AE899305C5066CD52CD9C2553D06937496
:1041E80006FF338999002306B5009145A306B5005B
:1041F80023071501CA8523240500A3070500232CDE
:104208000500232E05002A8436C63AC43EC242C0A1
:10421800EFE04F913D059247419902482247B24647
:104228003309A940232A340724DC68DC4A8622851E
:10423800CE85EFE04F8B9387C1D59C472324040696
:104248004A8583A787082324F408B250225492543D
:104258000259F24945618280011102534AC802C2DB
:1042680022591AC022CC26CA06CEB2542A84993FB3
:10427800FD566314D90063872401B3E7240191EB49
:104288002285DD23F24022856244D24442490561F9
:104298008280B74500084A86A6861305840193855F
:1042A800055CEF00900EF9BF930710102316F50078
:1042B800232A0506232C050623240508232205089E
:1042C80023A2A1D6828058411C411CC3D8C32320F5
:1042D8000500232205008280411122C406C62A84D3
:1042E800DD378347D40023240400F59BA306F4009C
:1042F800B2402244410182808347D5001397870149
:104308006187634A070813F7F70151E7411122C48F
:1043180006C626C293E707F8A306F5009387C1D51A
:104328009C4F1384C1D5138741D7544C639AE70037
:1043380018C154C188C248CC15A0E38BF6FE9C4333
:10434800E5DB0306E5008385E700E308B6FEE356F0
:10435800B6FED4431CC154C188C2C8C3044C63838D
:10436800E40091E044441C4403C7D7007D8B09EF67
:1043780083D6E7001307F0076378D7005CC8B2401C
:104388002244924441018280638597002685EF008C
:10439800006C44C8EDB7828041114AC006C622C4E9
:1043A80026C28347D5002A891397870161876357F7
:1043B800070093F7F707A306F50031371387C1D530
:1043C800004F1C47138741D79384C1D56303E4008A
:1043D80011E0C044638C270103C7D7007D8B19E720
:1043E80083D6E7001307F0076367D7006384870065
:1043F8002285B12DA287DCC8B240224492440249EA
:1044080041018280FD57B2866394F500630AB600C5
:104418002E86B74500089385055C61056F00E07638
:104428008280011122CC26CA9387C1D506CE4AC8FC
:10443800AE848C47D5571384C1D523A0F50893873C
:10444800C1D76384A700F3770430032944012EC63B
:10445800638C25014A8523242401D52B032549088B
:10446800B245894273000000A18873A004301C443F
:10447800F240624403A50708D2444249056182809C
:10448800411122C426C22A8406C6AE843137834726
:10449800D40093E72700A306F4008DCC04C49C4005
:1044A800639CF400DC4004C05CC080C3C0C01DA095
:1044B800D840E309F7FE9C43F5D70307E400838659
:1044C800E700E307D7FEE355D7FED8431CC058C022
:1044D80000C3C0C3B24022449244410182804111CA
:1044E80022C41387C1D506C626C21447504F138469
:1044F800C1D59C4201476383C6003E87D4429CC213
:10450800D4C31C44544C01EB138741D798C3D4C37C
:104518009CC25CCC31A80386E7008305E700630BE7
:10452800B6026359B602544398C3D4C39CC25CC351
:10453800044C938741D76383F40091E044441C44BE
:104548006384F4002685212344C8B240224492445F
:1045580041018280E38AE6FA184375B7411106C61D
:1045680022C473740430EFF03FD9218873200430DB
:10457800B240224441018280411106C622C426C2AB
:10458800F37404308347D50093F7870291EF1C45F5
:104598002A8499C3EFF05FD48347D4002285ED9B2A
:1045A800A306F400EFF05FD5A18873A00430B240F1
:1045B80022449244410182808545211575BF01112D
:1045C80022CC26CA4AC806CE2E843689B285BA8439
:1045D800F37704309387C1D588472AC655353245C5
:1045E800CA852686EFF01FE2A2856244F240D244D3
:1045F80042491385C1D705616FF0BFE213F7850003
:1046080019CB9387C1D5944399E6D44B9C476384CF
:10461800F6006FF01FE1732007308280011122CC71
:1046280006CE26CA137485001DC89387C1D5984342
:104638001DE78C47D84B6304B702555723A0E508FC
:1046480073770430C44B2EC6638B9500268584C7C8
:10465800FD2E03A54408B24589427300000073206B
:104668000430F2406244D24405618280F37704301A
:104678001387C1D5144703C7F6007D17A387E60043
:10468800A18B73A007308280411106C622C426C2BE
:104698004AC0737904309386C1D59C469384C1D5AA
:1046A80003C7F7000507A387E700804E138741D7A4
:1046B8006303E40011E0C04403C7D7007D8B19E70A
:1046C80083D6E7001307F0076367D7006384870082
:1046D8002285B52EA287DCC813798900732009309A
:1046E800737504302244B2409244024941013DB7F7
:1046F8009387C1D5C84B82809387C1D59447D84B3F
:1047080023A2A6080325470898C782809387C1D5A6
:10471800138741D798CFD8CF8280011106CE22CCFB
:1047280026CAF37504309387C1D59447D04F1384B4
:10473800C1D59C423E876393C6000147D4429CC2C0
:10474800D4C31C44544C01EB138741D798C3D4C33A
:104758009CC25CCC31A80386E7000305E700630030
:10476800A604635EA602544398C3D4C39CC25CC328
:10477800044C938741D76383F40091E044441C447C
:104788006386F40026852EC6D924B24544C86244FF
:10479800F240D2441385C1D705616FF09FC8E38505
:1047A800E6FA18434DB7011106CE22CC26CA4AC8EC
:1047B800B367B50081E795370145A9A82EC62AC475
:1047C800737904309384C1D58844EFF0FFBC8844E2
:1047D8002246B246B74500089385055C61057526F3
:1047E80098442A848347D700CA851385C1D793E79D
:1047F8004700A306F700EFF0DFC29C4498574DFF2F
:10480800D857B7070080E319F7FA0D2D3305A440F0
:10481800E34405FAF2406244D24442490561828089
:10482800411122C426C206C62A84AE84AD3F7D57F4
:10483800AA876315E40022856383840213859700A1
:1048480093D5F741B337F50029468146BE95EFB0B9
:10485800FFA199E163550500370500807D15B24039
:104868002244924441018280F37504308347D50085
:10487800918B85CB011122CC2A84610506CE2EC6E8
:104888009D218347D4002285ED9BA306F400EFF019
:10489800BFA66244B245F2401385C1D705616FF0E7
:1048A800FFD5A18973A0053082809387C1D5884739
:1048B8008280011106CE22CC26CA4AC84EC652C4EE
:1048C80056C2034AC500F37404308347D50013F772
:1048D800870009CFA18873A00430F2406244D24413
:1048E8004249B249224A924A0561828013E7870009
:1048F80093168701E1862A8463C0060CA306E500A7
:104908001C4481C72285EFF03F9D13058401E12EE9
:104918009309C4060329C406638429016317090A95
:104928009387C1D598471389C1D5814A6316E40096
:10493800832A0900B33A500183298901938741D713
:104948006384F900639409008329C900630437016B
:104958004E85F5282285232A3901EFD05F9C638B89
:104968000A0083278900054723A2E708138581BB2E
:10497800EFF09F93832789006315F40683270900C6
:10498800ADE38347C400A685858B91CBA18873A02E
:1049980004301145814273000000F375043013851B
:1049A800C1D7EFF01FA8137A1A00E3080AF21145DD
:1049B80081427300000015B793F7F70793E7870064
:1049C800A306F500EFF03F9025BF4A85EFF0DF9092
:1049D80013058901092E4A8523200908EFF0DF9184
:1049E80015BFA18873A004307DBF6FF09FEC93873B
:1049F80081C4B307F54037B7AAAA1307B7AA8D87AA
:104A0800B387E70213878184BA9705472380E700B5
:104A180082800357E5009307F00763E8E70283A75E
:104A280081808DC303A7C1848306E500814763CBDA
:104A3800E6000347D5007D8B11E7938781A91D8D7B
:104A4800B337A00013F5170082808147E5BF4111F5
:104A580026C283C4C1D622C46144338484029387A6
:104A680081C44AC02A8906C63E942285AD2C938704
:104A78008184BE944A8523800400613F0DC103A64A
:104A8800818022852244B240924402497D16B7555E
:104A980000089356F6419385659F4101FDA0B240F9
:104AA80022449244024941018280411106C622C42F
:104AB80026C2737404309387C1D503C70701938650
:104AC800818436970347070019CF84472685EFF07E
:104AD8005FF411C983C7D400FD8B99E3EFF03FA0C1
:104AE8002685EFF0DFF6218873200430B240224497
:104AF8009244410182809387C18088436313F50003
:104B080001458280411122C406C62A84ED371DC59D
:104B180018495C499356F441330587403337A70059
:104B2800958F998F634CF00099E36349050063D32F
:104B380007000145B24022444101828037050080C8
:104B48007D15CDBF83A7018599E36FE0BFE90145D6
:104B580082801DC19387C180DC43630FF500184133
:104B680001CF1C4B14494C49504BBE96B3B7F600C5
:104B78002E96B29714CB5CCB58411C411CC3D8C3AA
:104B880023200500232205008280797122D426D2B1
:104B98004AD052CC5AC806D64ECE56CA5EC6FD5723
:104BA8002A84B284368B328A36896314F600638984
:104BB800C6120CC4F3790430B70B00206340090611
:104BC800EFF05FF893871400B3B497001357F541DB
:104BD80003AA8B05DA943389A700BA9403A7CB05F7
:104BE800B337F900A6974A9A232824015CC83339B9
:104BF8002A01BA97AA8A3E998544EFF0DFEFAA877F
:104C08001387C180032847001385C180A9E708C01E
:104C1800232204012320880040C1ADA003A78B05EF
:104C280083A7CB05F9563387E640B3B6E60093C7AA
:104C3800F7FF958FB304974033379700B3876741E1
:104C4800998F6346F00091E399E08544814704C851
:104C58005CC881445DB7CC4B5048984B14486346B8
:104C6800B6006393C50663F1E606B306D74033374B
:104C7800D700918D998DD84394CBCCCB58C01CC00C
:104C880000C3C0C3EFF03FE7631FA40083A70185FB
:104C980099EB81E4EFF01FEBAA8A5685EFF09FE6C7
:104CA8008145EFE07FC993F9890073A00930B250BC
:104CB80022549254F249D24A424BB24B5285CA8589
:104CC800624A0259456182803387E640B3B6E600FE
:104CD8000D8E158E18C850C8E38B07F39C433DB75B
:104CE800014A0149E9B7411106C622C426C24AC091
:104CF800F37404301C41A1C32A84EFF0DFDF2A8952
:104D08002285EFF01FE50147B707008018C85CC887
:104D180063198900EFF01FE3EFF0DFDE8145EFE074
:104D2800BFC10145A18873A00430B2402244924417
:104D38000249410182802955F5B7797106D622D4F6
:104D480026D24AD04ECEF374043023A8A184370962
:104D58000020EFF05FDA83A7018503278905032880
:104D6800C905A18813D6F7410DC1544900496346C6
:104D7800D6006397C60463F58704B305F44033345B
:104D8800B400918E818E0CC954C93E97B337F70091
:104D98004296B2970145232CE904232EF90423A84F
:104DA8000184EFF03FD68145EFE01FB973A00430CE
:104DB8002254B25092540259F24945616FF0FFCE25
:104DC80022979356F441C296B3378700B697232E9D
:104DD800F904014881471CC9232A0501232CE90449
:104DE8002AC6EFF01FD773A0043032451C458297BE
:104DF800F374043083A70185818F23A8F184EFF031
:104E08009FCF91BF411106C622C473740430EFF0DE
:104E18007FD337070020AA859357F54103258705D7
:104E28000327C70521882E95B335B500BA97BE95D7
:104E380073200430B240224441018280411106C6E9
:104E4800EFF05FFCB240410182803765000813052E
:104E5800C51E6FD06F9FAA95AA876385B70003C741
:104E6800070001E73385A74082808507FDB79308CF
:104E78007003B388D840AA8793F8F80F3285FD8A63
:104E88002143414E2546954E13F7F70F638C660A6A
:104E9800638AC60D139FF50113D81700939FE50188
:104EA800898333680F01B3E7FF00C29713DF15004A
:104EB8008981FA9533B807012E98131FC80193D535
:104EC8004700B365BF00BE95135F48007A98B3B733
:104ED800F500C297139F870113D8850033680F0127
:104EE8002E9813DF8700FA97B335B800BE959397CD
:104EF8000501135F080133EFE701429F93D70501CE
:104F0800BE9533380F012E98B3070F01B3B5E701EB
:104F1800C2951398D5018D83B367F8003388D703FA
:104F28008D810608330707411377F70F6373E6028D
:104F380013881700333FF8005917C287FA9513777B
:104F4800F70F05A81398D5018D831D8BB367F8005B
:104F58008D81130707032300E50033E7B700050534
:104F680005F782801398C50191833D8BB367F800DC
:104F78009181E370E6FE46971377F70FD9BF597111
:104F8800D6CA86D6A2D4A6D2CAD0CECED2CCDAC8B9
:104F9800DEC6E2C4E6C2EAC06EDE83474500832A65
:104FA8008500898B63820724AA89B284014983CC4E
:104FB8000500638C0C2293075002938B1500639AAB
:104FC800FC0083CC150093075002938B2500639A4D
:104FD800FC000509CE856685829A63410520DE8539
:104FE800F9B737670008014D014A01447D46930629
:104FF800C006930540071305A00713088006930809
:10500800A0061303C004130EA002930EE002130FB0
:10501800F007C14FA54213078723636F8604938760
:105028000CFE63E6FF008A07BA979C438287938742
:105038000CFD63F4F206639FCC07937304049C4051
:1050480091046398031063C20706136404023E8A3E
:1050580019A01364140083CC0B00850BE39F0CFA92
:10506800ADA81364240013644400F5B713648400E6
:10507800DDB713640401C5B763678F0493870CFD1C
:10508800A543E3EAF3FA9373040463880300A9438E
:10509800B3037D02338DF3007DBFA943B3037A02C6
:1050A80013640402338AF3007DB7330AF0401364B3
:1050B800840255B76399DC01937704046397071258
:1050C8001364040449BF6383DC0663EC96056387B5
:1050D8000C07638D1C07638B6C0663570D001374F4
:1050E800F4FB42044180014D93E60C021387B6F9A4
:1050F800894763F6E70093071006639EF6049D044C
:10510800E198376B0008A1049D4C130B0B232188F1
:105118005DC80144639B8C0A33069901330A9A419E
:10512800EDA4E38ABCF2E388ACF245BF93770408A8
:1051380099C3136404201364040831BF93770410DF
:1051480099C3136404201364041031B7136404284A
:1051580019B73E8D09B79387DCF949476368F71E8D
:10516800376700088A071307C727BA979C438287BF
:105178009C40854C9104230CF100130B810141BF25
:1051880003AB0400938D440063160B00376B0008D3
:10519800130B8B2293770404FD5591C3EA855A8536
:1051A800EFF07FCBAA8CEE849DB7CE851305000265
:1051B800829A634505027D14E3E98CFE529933090E
:1051C8008940228AB9B75284C5BFB3078B0003C58B
:1051D8000700CE850504829AE35E05F283C749007D
:1051E80093E747002382F9007D59B6502654965418
:1051F800F649664AD64A464BB64B264C964C064D5F
:10520800F25D4A8506596561828093770408D1CB9F
:1052180093770420C9C39D04E1988840CC40138B40
:1052280084009374F4FEC204C18063DB0508B337BD
:10523800A000B305B0409D8D3305A04093E4044021
:10524800130C8101A9466286EFF07FC293F704042C
:10525800330C8541E1CF93F7E4FFC207C183635B59
:10526800AC1563840C1493FD04016A84BE846387BF
:105278000D06090493F784006392071693F7140048
:1052880089CB628D6357440133048A40330D84010E
:105298005284A2872DAA8840138B44009355F54168
:1052A80049B7937704108840138B4400E5DB937764
:1052B800042081C762056185D5B742054185F9BFDC
:1052C800B367B500B5FF93770404BDDBE31A0DF6A9
:1052D8009374E4FEC204C1800144014C93FD644010
:1052E800E38A0DF80504814D71B73D984204418069
:1052F800A94693770408C1C793770420A5CF9D04D6
:10530800E1988840CC40138B8400B367B500D9E797
:10531800937494FEC20493770404C180C1C76313D5
:105328000D08937484FEC204C180014C93FD0401EE
:1053380063840D0813041C00E38E0CF2628415BF0D
:1053480013640401C146930C800765B7930780076F
:105358006397F600B386964193E6060159BFCE855A
:1053680013055002829AE34B05E60909A5B1A14647
:10537800814C41B78840138B4400814579B79377B6
:1053880004108840138B4400EDDB9377042081C719
:105398001375F50FDDB742054181C5B765989314BC
:1053A8000401C180130C810179BDB998C204C18080
:1053B8006A842DB7BE849DBF62840DB7CE85130560
:1053C80000023EC6829AE34B05E0B2478507E3C771
:1053D80047FF330489403309F4003E8463810D0498
:1053E800CE8513050003829AE34A05DE63920C0218
:1053F80005094A9DB3072D416345FC04E284B1E8E1
:1054080033062C01330A8A40DA843289329A9DA005
:105418000909CE856685829AE35D05FCC1B393F7D9
:105428006440E1DB93F724001305000299C31305D8
:10543800B00293F4044099C01305D0020509CE8543
:10544800D9BFCE85130500030509829AE35405FAEE
:1054580071B3FD143C08A69703C50700CE85829A50
:10546800E35F05F8A5BBCE85130500020509829AFE
:10547800E34605D6B3072A41E347F0FE8DB62A83F3
:1054880009CA83830500230073007D16050385057B
:105498006DFA82802A8311C62300B3007D160503A6
:0454A80065FE82809B
:1054AC0000000000145500080000000030550008F2
:1054BC0000000000BC5500080000000084550008E6
:1054CC00000000004C55000800000000A05500082A
:1054DC00000000006855000836330008000000008A
:1054EC0000000000D8550008A428000800000000A7
:1054FC0060380008000000004E2500080000000085
:08550C0000000000F455000846
:10551400B0600008F459000844590008380000201D
:105524000000000000000000000000008C61000882
:10553400185A0008345900084200002000000000F6
:1055440000000000000000005C600008D45900085E
:105554000000000034000020240000207225000810
:10556400000000007C600008000000000000000053
:10557400360000208C040020BE2600080000000035
:10558400D460000804610008F85800083A000020BC
:1055940024050020722B000800000000E4600008CD
:1055A40018610008F85800083C000020300500206D
:1055B400722B000800000000F46000082C61000851
:1055C400F85800083E0000203C050020722B00081B
:1055D40000000000A0610008B061000860590008E4
:1055E4004400002014000020883700080000000058
:1055F40040610008506100081C5900084000002068
:0C56040048050020FC30000800000000F9
:10561000000000000000000000000000000000008A
:10562000000000000000000000000000000000007A
:10563000000000000000000000000000000000006A
:1056400000000000D222000800000000D222000862
:1056500000000000D222000800000000D222000852
:1056600000000000D222000800000000D222000842
:1056700000000000D222000800000000D638000818
:1056800000000000D222000800000000D222000822
:1056900000000000D222000800000000D222000812
:1056A00000000000D222000800000000D222000802
:1056B00000000000D222000800000000D2220008F2
:1056C00000000000D222000800000000D2220008E2
:1056D00000000000D222000800000000D2220008D2
:1056E00000000000D222000800000000D2220008C2
:1056F00000000000D222000800000000D2220008B2
:1057000000000000D2220008F05900085C260008C2
:10571000EC5900085C260008E85900085C260008DF
:10572000E45900085C260008E05900085C260008DF
:1057300000000000D222000800000000D222000871
:1057400000000000D222000800000000D222000861
:1057500000000000D222000800000000D222000851
:1057600000000000D222000800000000D222000841
:1057700000000000D222000800000000D222000831
:1057800000000000D222000800000000D222000821
:10579000DC5900085C26000800000000D222000846
:1057A00000000000D222000800000000D222000801
:1057B00000000000D222000800000000D2220008F1
:1057C00000000000D222000800000000D2220008E1
:1057D000F45500080A2D0008F4550008F62B0008BF
:1057E00000000000D222000800000000D2220008C1
:1057F00000000000D222000800000000D2220008B1
:10580000D85500083A35000800000000D2220008F0
:1058100000000000D2220008D85900085C260008C9
:1058200000000000D222000800000000D222000880
:1058300000000000D222000800000000D222000870
:1058400000000000D222000800000000D222000860
:1058500000000000D222000800000000D222000850
:1058600000000000D222000800000000D222000840
:1058700000000000D222000800000000D222000830
:1058800000000000D222000800000000D222000820
:1058900000000000D222000800000000D222000810
:1058A00000000000D222000800000000D222000800
:1058B00000000000D222000800000000D2220008F0
:1058C00000000000D222000800000000D2220008E0
:1058D00000000000D222000800000000D2220008D0
:1058E00000000000D222000800000000D2220008C0
:0858F00000000000D2220008B4
:1058F8001E290008C0290008CC290008DE29000854
:10590800E8290008F2290008622A0008002A00088D
:04591800000000008B
:10591C00262F000800000000D03100080000000015
:08592C00000000000000000073
:10593400B6340008DA340008F83400081A350008D0
:10594400B8270008DA270008000000000028000833
:0C59540080280008000000000000000097
:1059600022360008B4350008243700080000000083
:105970000000000052350008D43500084E360008FB
:1059800080360008B2360008583600088A3600080B
:10599000A0350008AA3500086236000894360008D1
:0C59A000DE360008463500084A350008D5
:1059B000000000000000103F000000000060604098
:1059C0000000000000407540A4703D0AD7434240EB
:1059D0000000C842000000D20A0F000005090000C4
:1059E00004040000030300000202000001010000A3
:1059F000000000000010024000000000010203044B
:105A0000085A000801000000105A000802000000B7
:105A1000610A0104710A010400100240000000063E
:105A2000000400000000001000100000345A0008BC
:105A3000010000003C5A000802000000901201041E
:105A4000A011010400000000000000000102030496
:105A50000607080900010202030303030404040407
:105A600004040404050505050505050505050505EA
:105A700005050505060606060606060606060606CA
:105A800006060606060606060606060606060606B6
:105A9000060606060707070707070707070707079A
:105AA0000707070707070707070707070707070786
:105AB0000707070707070707070707070707070776
:105AC0000707070707070707070707070707070766
:105AD000070707070808080808080808080808084A
:105AE0000808080808080808080808080808080836
